{
  "contracts/Timelock.sol": {
    "Timelock": {
      "abi": [
        {
          "inputs": [
            {
              "internalType": "uint256",
              "name": "",
              "type": "uint256"
            }
          ],
          "name": "messages",
          "outputs": [
            {
              "internalType": "address",
              "name": "user",
              "type": "address"
            },
            {
              "internalType": "string",
              "name": "text",
              "type": "string"
            },
            {
              "internalType": "uint256",
              "name": "unlockTime",
              "type": "uint256"
            }
          ],
          "stateMutability": "view",
          "type": "function"
        },
        {
          "inputs": [],
          "name": "revealMessage",
          "outputs": [
            {
              "internalType": "string[]",
              "name": "",
              "type": "string[]"
            }
          ],
          "stateMutability": "view",
          "type": "function"
        },
        {
          "inputs": [
            {
              "internalType": "string",
              "name": "_message",
              "type": "string"
            }
          ],
          "name": "setMessage",
          "outputs": [],
          "stateMutability": "nonpayable",
          "type": "function"
        }
      ],
      "evm": {
        "bytecode": {
          "linkReferences": {},
          "object": "6080604052348015600f57600080fd5b506111e58061001f6000396000f3fe608060405234801561001057600080fd5b50600436106100415760003560e01c80630d80fefd146100465780631c3b7bc414610078578063368b877214610096575b600080fd5b610060600480360381019061005b91906107c1565b6100b2565b60405161006f939291906108ce565b60405180910390f35b610080610194565b60405161008d9190610a18565b60405180910390f35b6100b060048036038101906100ab9190610b6f565b61036f565b005b600081815481106100c257600080fd5b90600052602060002090600302016000915090508060000160009054906101000a900473ffffffffffffffffffffffffffffffffffffffff169080600101805461010b90610be7565b80601f016020809104026020016040519081016040528092919081815260200182805461013790610be7565b80156101845780601f1061015957610100808354040283529160200191610184565b820191906000526020600020905b81548152906001019060200180831161016757829003601f168201915b5050505050908060020154905083565b60606000808054905067ffffffffffffffff8111156101b6576101b5610a44565b5b6040519080825280602002602001820160405280156101e957816020015b60608152602001906001900390816101d45790505b50905060005b60008054905081101561036757600081815481106102105761020f610c18565b5b90600052602060002090600302016002015442101561028d57600042600083815481106102405761023f610c18565b5b90600052602060002090600302016002015461025c9190610c76565b9050610267816105ef565b6040516020016102779190610da4565b604051602081830303815290604052505061035a565b600081815481106102a1576102a0610c18565b5b906000526020600020906003020160010180546102bd90610be7565b80601f01602080910402602001604051908101604052809291908181526020018280546102e990610be7565b80156103365780601f1061030b57610100808354040283529160200191610336565b820191906000526020600020905b81548152906001019060200180831161031957829003601f168201915b505050505082828151811061034e5761034d610c18565b5b60200260200101819052505b80806001019150506101ef565b508091505090565b6000805b600080549050811015610513573373ffffffffffffffffffffffffffffffffffffffff16600082815481106103ab576103aa610c18565b5b906000526020600020906003020160000160009054906101000a900473ffffffffffffffffffffffffffffffffffffffff1673ffffffffffffffffffffffffffffffffffffffff1603610506576000818154811061040c5761040b610c18565b5b90600052602060002090600302016002015442101561049357826000828154811061043a57610439610c18565b5b906000526020600020906003020160010190816104579190610f7d565b50600f42610465919061104f565b6000828154811061047957610478610c18565b5b9060005260206000209060030201600201819055506104fd565b82600082815481106104a8576104a7610c18565b5b906000526020600020906003020160010190816104c59190610f7d565b50600f426104d3919061104f565b600082815481106104e7576104e6610c18565b5b9060005260206000209060030201600201819055505b60019150610513565b8080600101915050610373565b50806105eb57600060405180606001604052803373ffffffffffffffffffffffffffffffffffffffff168152602001848152602001600f42610555919061104f565b815250908060018154018082558091505060019003906000526020600020906003020160009091909190915060008201518160000160006101000a81548173ffffffffffffffffffffffffffffffffffffffff021916908373ffffffffffffffffffffffffffffffffffffffff16021790555060208201518160010190816105dd9190610f7d565b506040820151816002015550505b5050565b606060008203610636576040518060400160405280600181526020017f30000000000000000000000000000000000000000000000000000000000000008152509050610772565b600082905060005b6000821461066857808061065190611083565b915050600a8261066191906110fa565b915061063e565b60008167ffffffffffffffff81111561068457610683610a44565b5b6040519080825280601f01601f1916602001820160405280156106b65781602001600182028036833780820191505090505b50905060008290505b6000861461076a576001816106d49190610c76565b90506000600a80886106e691906110fa565b6106f0919061112b565b876106fb9190610c76565b6030610707919061117a565b905060008160f81b90508084848151811061072557610724610c18565b5b60200101907effffffffffffffffffffffffffffffffffffffffffffffffffffffffffffff1916908160001a905350600a8861076191906110fa565b975050506106bf565b819450505050505b919050565b6000604051905090565b600080fd5b600080fd5b6000819050919050565b61079e8161078b565b81146107a957600080fd5b50565b6000813590506107bb81610795565b92915050565b6000602082840312156107d7576107d6610781565b5b60006107e5848285016107ac565b91505092915050565b600073ffffffffffffffffffffffffffffffffffffffff82169050919050565b6000610819826107ee565b9050919050565b6108298161080e565b82525050565b600081519050919050565b600082825260208201905092915050565b60005b8381101561086957808201518184015260208101905061084e565b60008484015250505050565b6000601f19601f8301169050919050565b60006108918261082f565b61089b818561083a565b93506108ab81856020860161084b565b6108b481610875565b840191505092915050565b6108c88161078b565b82525050565b60006060820190506108e36000830186610820565b81810360208301526108f58185610886565b905061090460408301846108bf565b949350505050565b600081519050919050565b600082825260208201905092915050565b6000819050602082019050919050565b600082825260208201905092915050565b60006109548261082f565b61095e8185610938565b935061096e81856020860161084b565b61097781610875565b840191505092915050565b600061098e8383610949565b905092915050565b6000602082019050919050565b60006109ae8261090c565b6109b88185610917565b9350836020820285016109ca85610928565b8060005b85811015610a0657848403895281516109e78582610982565b94506109f283610996565b925060208a019950506001810190506109ce565b50829750879550505050505092915050565b60006020820190508181036000830152610a3281846109a3565b905092915050565b600080fd5b600080fd5b7f4e487b7100000000000000000000000000000000000000000000000000000000600052604160045260246000fd5b610a7c82610875565b810181811067ffffffffffffffff82111715610a9b57610a9a610a44565b5b80604052505050565b6000610aae610777565b9050610aba8282610a73565b919050565b600067ffffffffffffffff821115610ada57610ad9610a44565b5b610ae382610875565b9050602081019050919050565b82818337600083830152505050565b6000610b12610b0d84610abf565b610aa4565b905082815260208101848484011115610b2e57610b2d610a3f565b5b610b39848285610af0565b509392505050565b600082601f830112610b5657610b55610a3a565b5b8135610b66848260208601610aff565b91505092915050565b600060208284031215610b8557610b84610781565b5b600082013567ffffffffffffffff811115610ba357610ba2610786565b5b610baf84828501610b41565b91505092915050565b7f4e487b7100000000000000000000000000000000000000000000000000000000600052602260045260246000fd5b60006002820490506001821680610bff57607f821691505b602082108103610c1257610c11610bb8565b5b50919050565b7f4e487b7100000000000000000000000000000000000000000000000000000000600052603260045260246000fd5b7f4e487b7100000000000000000000000000000000000000000000000000000000600052601160045260246000fd5b6000610c818261078b565b9150610c8c8361078b565b9250828203905081811115610ca457610ca3610c47565b5b92915050565b600081905092915050565b7f4d657373616765206973207374696c6c206c6f636b65642e2054696d6520726560008201527f6d61696e696e673a200000000000000000000000000000000000000000000000602082015250565b6000610d11602983610caa565b9150610d1c82610cb5565b602982019050919050565b6000610d328261082f565b610d3c8185610caa565b9350610d4c81856020860161084b565b80840191505092915050565b7f207365636f6e6473000000000000000000000000000000000000000000000000600082015250565b6000610d8e600883610caa565b9150610d9982610d58565b600882019050919050565b6000610daf82610d04565b9150610dbb8284610d27565b9150610dc682610d81565b915081905092915050565b60008190508160005260206000209050919050565b60006020601f8301049050919050565b600082821b905092915050565b600060088302610e337fffffffffffffffffffffffffffffffffffffffffffffffffffffffffffffffff82610df6565b610e3d8683610df6565b95508019841693508086168417925050509392505050565b6000819050919050565b6000610e7a610e75610e708461078b565b610e55565b61078b565b9050919050565b6000819050919050565b610e9483610e5f565b610ea8610ea082610e81565b848454610e03565b825550505050565b600090565b610ebd610eb0565b610ec8818484610e8b565b505050565b5b81811015610eec57610ee1600082610eb5565b600181019050610ece565b5050565b601f821115610f3157610f0281610dd1565b610f0b84610de6565b81016020851015610f1a578190505b610f2e610f2685610de6565b830182610ecd565b50505b505050565b600082821c905092915050565b6000610f5460001984600802610f36565b1980831691505092915050565b6000610f6d8383610f43565b9150826002028217905092915050565b610f868261082f565b67ffffffffffffffff811115610f9f57610f9e610a44565b5b610fa98254610be7565b610fb4828285610ef0565b600060209050601f831160018114610fe75760008415610fd5578287015190505b610fdf8582610f61565b865550611047565b601f198416610ff586610dd1565b60005b8281101561101d57848901518255600182019150602085019450602081019050610ff8565b8683101561103a5784890151611036601f891682610f43565b8355505b6001600288020188555050505b505050505050565b600061105a8261078b565b91506110658361078b565b925082820190508082111561107d5761107c610c47565b5b92915050565b600061108e8261078b565b91507fffffffffffffffffffffffffffffffffffffffffffffffffffffffffffffffff82036110c0576110bf610c47565b5b600182019050919050565b7f4e487b7100000000000000000000000000000000000000000000000000000000600052601260045260246000fd5b60006111058261078b565b91506111108361078b565b9250826111205761111f6110cb565b5b828204905092915050565b60006111368261078b565b91506111418361078b565b925082820261114f8161078b565b9150828204841483151761116657611165610c47565b5b5092915050565b600060ff82169050919050565b60006111858261116d565b91506111908361116d565b9250828201905060ff8111156111a9576111a8610c47565b5b9291505056fea2646970667358221220959c56a018f2fbf75f30b8d5435c9b054e72c8920b7c375d0d26cc0211cd3ef664736f6c634300081b0033",
          "opcodes": "PUSH1 0x80 PUSH1 0x40 MSTORE CALLVALUE DUP1 ISZERO PUSH1 0xF JUMPI PUSH1 0x0 DUP1 REVERT JUMPDEST POP PUSH2 0x11E5 DUP1 PUSH2 0x1F PUSH1 0x0 CODECOPY PUSH1 0x0 RETURN INVALID PUSH1 0x80 PUSH1 0x40 MSTORE CALLVALUE DUP1 ISZERO PUSH2 0x10 JUMPI PUSH1 0x0 DUP1 REVERT JUMPDEST POP PUSH1 0x4 CALLDATASIZE LT PUSH2 0x41 JUMPI PUSH1 0x0 CALLDATALOAD PUSH1 0xE0 SHR DUP1 PUSH4 0xD80FEFD EQ PUSH2 0x46 JUMPI DUP1 PUSH4 0x1C3B7BC4 EQ PUSH2 0x78 JUMPI DUP1 PUSH4 0x368B8772 EQ PUSH2 0x96 JUMPI JUMPDEST PUSH1 0x0 DUP1 REVERT JUMPDEST PUSH2 0x60 PUSH1 0x4 DUP1 CALLDATASIZE SUB DUP2 ADD SWAP1 PUSH2 0x5B SWAP2 SWAP1 PUSH2 0x7C1 JUMP JUMPDEST PUSH2 0xB2 JUMP JUMPDEST PUSH1 0x40 MLOAD PUSH2 0x6F SWAP4 SWAP3 SWAP2 SWAP1 PUSH2 0x8CE JUMP JUMPDEST PUSH1 0x40 MLOAD DUP1 SWAP2 SUB SWAP1 RETURN JUMPDEST PUSH2 0x80 PUSH2 0x194 JUMP JUMPDEST PUSH1 0x40 MLOAD PUSH2 0x8D SWAP2 SWAP1 PUSH2 0xA18 JUMP JUMPDEST PUSH1 0x40 MLOAD DUP1 SWAP2 SUB SWAP1 RETURN JUMPDEST PUSH2 0xB0 PUSH1 0x4 DUP1 CALLDATASIZE SUB DUP2 ADD SWAP1 PUSH2 0xAB SWAP2 SWAP1 PUSH2 0xB6F JUMP JUMPDEST PUSH2 0x36F JUMP JUMPDEST STOP JUMPDEST PUSH1 0x0 DUP2 DUP2 SLOAD DUP2 LT PUSH2 0xC2 JUMPI PUSH1 0x0 DUP1 REVERT JUMPDEST SWAP1 PUSH1 0x0 MSTORE PUSH1 0x20 PUSH1 0x0 KECCAK256 SWAP1 PUSH1 0x3 MUL ADD PUSH1 0x0 SWAP2 POP SWAP1 POP DUP1 PUSH1 0x0 ADD PUSH1 0x0 SWAP1 SLOAD SWAP1 PUSH2 0x100 EXP SWAP1 DIV PUSH20 0xFFFFFFFFFFFFFFFFFFFFFFFFFFFFFFFFFFFFFFFF AND SWAP1 DUP1 PUSH1 0x1 ADD DUP1 SLOAD PUSH2 0x10B SWAP1 PUSH2 0xBE7 JUMP JUMPDEST DUP1 PUSH1 0x1F ADD PUSH1 0x20 DUP1 SWAP2 DIV MUL PUSH1 0x20 ADD PUSH1 0x40 MLOAD SWAP1 DUP2 ADD PUSH1 0x40 MSTORE DUP1 SWAP3 SWAP2 SWAP1 DUP2 DUP2 MSTORE PUSH1 0x20 ADD DUP3 DUP1 SLOAD PUSH2 0x137 SWAP1 PUSH2 0xBE7 JUMP JUMPDEST DUP1 ISZERO PUSH2 0x184 JUMPI DUP1 PUSH1 0x1F LT PUSH2 0x159 JUMPI PUSH2 0x100 DUP1 DUP4 SLOAD DIV MUL DUP4 MSTORE SWAP2 PUSH1 0x20 ADD SWAP2 PUSH2 0x184 JUMP JUMPDEST DUP3 ADD SWAP2 SWAP1 PUSH1 0x0 MSTORE PUSH1 0x20 PUSH1 0x0 KECCAK256 SWAP1 JUMPDEST DUP2 SLOAD DUP2 MSTORE SWAP1 PUSH1 0x1 ADD SWAP1 PUSH1 0x20 ADD DUP1 DUP4 GT PUSH2 0x167 JUMPI DUP3 SWAP1 SUB PUSH1 0x1F AND DUP3 ADD SWAP2 JUMPDEST POP POP POP POP POP SWAP1 DUP1 PUSH1 0x2 ADD SLOAD SWAP1 POP DUP4 JUMP JUMPDEST PUSH1 0x60 PUSH1 0x0 DUP1 DUP1 SLOAD SWAP1 POP PUSH8 0xFFFFFFFFFFFFFFFF DUP2 GT ISZERO PUSH2 0x1B6 JUMPI PUSH2 0x1B5 PUSH2 0xA44 JUMP JUMPDEST JUMPDEST PUSH1 0x40 MLOAD SWAP1 DUP1 DUP3 MSTORE DUP1 PUSH1 0x20 MUL PUSH1 0x20 ADD DUP3 ADD PUSH1 0x40 MSTORE DUP1 ISZERO PUSH2 0x1E9 JUMPI DUP2 PUSH1 0x20 ADD JUMPDEST PUSH1 0x60 DUP2 MSTORE PUSH1 0x20 ADD SWAP1 PUSH1 0x1 SWAP1 SUB SWAP1 DUP2 PUSH2 0x1D4 JUMPI SWAP1 POP JUMPDEST POP SWAP1 POP PUSH1 0x0 JUMPDEST PUSH1 0x0 DUP1 SLOAD SWAP1 POP DUP2 LT ISZERO PUSH2 0x367 JUMPI PUSH1 0x0 DUP2 DUP2 SLOAD DUP2 LT PUSH2 0x210 JUMPI PUSH2 0x20F PUSH2 0xC18 JUMP JUMPDEST JUMPDEST SWAP1 PUSH1 0x0 MSTORE PUSH1 0x20 PUSH1 0x0 KECCAK256 SWAP1 PUSH1 0x3 MUL ADD PUSH1 0x2 ADD SLOAD TIMESTAMP LT ISZERO PUSH2 0x28D JUMPI PUSH1 0x0 TIMESTAMP PUSH1 0x0 DUP4 DUP2 SLOAD DUP2 LT PUSH2 0x240 JUMPI PUSH2 0x23F PUSH2 0xC18 JUMP JUMPDEST JUMPDEST SWAP1 PUSH1 0x0 MSTORE PUSH1 0x20 PUSH1 0x0 KECCAK256 SWAP1 PUSH1 0x3 MUL ADD PUSH1 0x2 ADD SLOAD PUSH2 0x25C SWAP2 SWAP1 PUSH2 0xC76 JUMP JUMPDEST SWAP1 POP PUSH2 0x267 DUP2 PUSH2 0x5EF JUMP JUMPDEST PUSH1 0x40 MLOAD PUSH1 0x20 ADD PUSH2 0x277 SWAP2 SWAP1 PUSH2 0xDA4 JUMP JUMPDEST PUSH1 0x40 MLOAD PUSH1 0x20 DUP2 DUP4 SUB SUB DUP2 MSTORE SWAP1 PUSH1 0x40 MSTORE POP POP PUSH2 0x35A JUMP JUMPDEST PUSH1 0x0 DUP2 DUP2 SLOAD DUP2 LT PUSH2 0x2A1 JUMPI PUSH2 0x2A0 PUSH2 0xC18 JUMP JUMPDEST JUMPDEST SWAP1 PUSH1 0x0 MSTORE PUSH1 0x20 PUSH1 0x0 KECCAK256 SWAP1 PUSH1 0x3 MUL ADD PUSH1 0x1 ADD DUP1 SLOAD PUSH2 0x2BD SWAP1 PUSH2 0xBE7 JUMP JUMPDEST DUP1 PUSH1 0x1F ADD PUSH1 0x20 DUP1 SWAP2 DIV MUL PUSH1 0x20 ADD PUSH1 0x40 MLOAD SWAP1 DUP2 ADD PUSH1 0x40 MSTORE DUP1 SWAP3 SWAP2 SWAP1 DUP2 DUP2 MSTORE PUSH1 0x20 ADD DUP3 DUP1 SLOAD PUSH2 0x2E9 SWAP1 PUSH2 0xBE7 JUMP JUMPDEST DUP1 ISZERO PUSH2 0x336 JUMPI DUP1 PUSH1 0x1F LT PUSH2 0x30B JUMPI PUSH2 0x100 DUP1 DUP4 SLOAD DIV MUL DUP4 MSTORE SWAP2 PUSH1 0x20 ADD SWAP2 PUSH2 0x336 JUMP JUMPDEST DUP3 ADD SWAP2 SWAP1 PUSH1 0x0 MSTORE PUSH1 0x20 PUSH1 0x0 KECCAK256 SWAP1 JUMPDEST DUP2 SLOAD DUP2 MSTORE SWAP1 PUSH1 0x1 ADD SWAP1 PUSH1 0x20 ADD DUP1 DUP4 GT PUSH2 0x319 JUMPI DUP3 SWAP1 SUB PUSH1 0x1F AND DUP3 ADD SWAP2 JUMPDEST POP POP POP POP POP DUP3 DUP3 DUP2 MLOAD DUP2 LT PUSH2 0x34E JUMPI PUSH2 0x34D PUSH2 0xC18 JUMP JUMPDEST JUMPDEST PUSH1 0x20 MUL PUSH1 0x20 ADD ADD DUP2 SWAP1 MSTORE POP JUMPDEST DUP1 DUP1 PUSH1 0x1 ADD SWAP2 POP POP PUSH2 0x1EF JUMP JUMPDEST POP DUP1 SWAP2 POP POP SWAP1 JUMP JUMPDEST PUSH1 0x0 DUP1 JUMPDEST PUSH1 0x0 DUP1 SLOAD SWAP1 POP DUP2 LT ISZERO PUSH2 0x513 JUMPI CALLER PUSH20 0xFFFFFFFFFFFFFFFFFFFFFFFFFFFFFFFFFFFFFFFF AND PUSH1 0x0 DUP3 DUP2 SLOAD DUP2 LT PUSH2 0x3AB JUMPI PUSH2 0x3AA PUSH2 0xC18 JUMP JUMPDEST JUMPDEST SWAP1 PUSH1 0x0 MSTORE PUSH1 0x20 PUSH1 0x0 KECCAK256 SWAP1 PUSH1 0x3 MUL ADD PUSH1 0x0 ADD PUSH1 0x0 SWAP1 SLOAD SWAP1 PUSH2 0x100 EXP SWAP1 DIV PUSH20 0xFFFFFFFFFFFFFFFFFFFFFFFFFFFFFFFFFFFFFFFF AND PUSH20 0xFFFFFFFFFFFFFFFFFFFFFFFFFFFFFFFFFFFFFFFF AND SUB PUSH2 0x506 JUMPI PUSH1 0x0 DUP2 DUP2 SLOAD DUP2 LT PUSH2 0x40C JUMPI PUSH2 0x40B PUSH2 0xC18 JUMP JUMPDEST JUMPDEST SWAP1 PUSH1 0x0 MSTORE PUSH1 0x20 PUSH1 0x0 KECCAK256 SWAP1 PUSH1 0x3 MUL ADD PUSH1 0x2 ADD SLOAD TIMESTAMP LT ISZERO PUSH2 0x493 JUMPI DUP3 PUSH1 0x0 DUP3 DUP2 SLOAD DUP2 LT PUSH2 0x43A JUMPI PUSH2 0x439 PUSH2 0xC18 JUMP JUMPDEST JUMPDEST SWAP1 PUSH1 0x0 MSTORE PUSH1 0x20 PUSH1 0x0 KECCAK256 SWAP1 PUSH1 0x3 MUL ADD PUSH1 0x1 ADD SWAP1 DUP2 PUSH2 0x457 SWAP2 SWAP1 PUSH2 0xF7D JUMP JUMPDEST POP PUSH1 0xF TIMESTAMP PUSH2 0x465 SWAP2 SWAP1 PUSH2 0x104F JUMP JUMPDEST PUSH1 0x0 DUP3 DUP2 SLOAD DUP2 LT PUSH2 0x479 JUMPI PUSH2 0x478 PUSH2 0xC18 JUMP JUMPDEST JUMPDEST SWAP1 PUSH1 0x0 MSTORE PUSH1 0x20 PUSH1 0x0 KECCAK256 SWAP1 PUSH1 0x3 MUL ADD PUSH1 0x2 ADD DUP2 SWAP1 SSTORE POP PUSH2 0x4FD JUMP JUMPDEST DUP3 PUSH1 0x0 DUP3 DUP2 SLOAD DUP2 LT PUSH2 0x4A8 JUMPI PUSH2 0x4A7 PUSH2 0xC18 JUMP JUMPDEST JUMPDEST SWAP1 PUSH1 0x0 MSTORE PUSH1 0x20 PUSH1 0x0 KECCAK256 SWAP1 PUSH1 0x3 MUL ADD PUSH1 0x1 ADD SWAP1 DUP2 PUSH2 0x4C5 SWAP2 SWAP1 PUSH2 0xF7D JUMP JUMPDEST POP PUSH1 0xF TIMESTAMP PUSH2 0x4D3 SWAP2 SWAP1 PUSH2 0x104F JUMP JUMPDEST PUSH1 0x0 DUP3 DUP2 SLOAD DUP2 LT PUSH2 0x4E7 JUMPI PUSH2 0x4E6 PUSH2 0xC18 JUMP JUMPDEST JUMPDEST SWAP1 PUSH1 0x0 MSTORE PUSH1 0x20 PUSH1 0x0 KECCAK256 SWAP1 PUSH1 0x3 MUL ADD PUSH1 0x2 ADD DUP2 SWAP1 SSTORE POP JUMPDEST PUSH1 0x1 SWAP2 POP PUSH2 0x513 JUMP JUMPDEST DUP1 DUP1 PUSH1 0x1 ADD SWAP2 POP POP PUSH2 0x373 JUMP JUMPDEST POP DUP1 PUSH2 0x5EB JUMPI PUSH1 0x0 PUSH1 0x40 MLOAD DUP1 PUSH1 0x60 ADD PUSH1 0x40 MSTORE DUP1 CALLER PUSH20 0xFFFFFFFFFFFFFFFFFFFFFFFFFFFFFFFFFFFFFFFF AND DUP2 MSTORE PUSH1 0x20 ADD DUP5 DUP2 MSTORE PUSH1 0x20 ADD PUSH1 0xF TIMESTAMP PUSH2 0x555 SWAP2 SWAP1 PUSH2 0x104F JUMP JUMPDEST DUP2 MSTORE POP SWAP1 DUP1 PUSH1 0x1 DUP2 SLOAD ADD DUP1 DUP3 SSTORE DUP1 SWAP2 POP POP PUSH1 0x1 SWAP1 SUB SWAP1 PUSH1 0x0 MSTORE PUSH1 0x20 PUSH1 0x0 KECCAK256 SWAP1 PUSH1 0x3 MUL ADD PUSH1 0x0 SWAP1 SWAP2 SWAP1 SWAP2 SWAP1 SWAP2 POP PUSH1 0x0 DUP3 ADD MLOAD DUP2 PUSH1 0x0 ADD PUSH1 0x0 PUSH2 0x100 EXP DUP2 SLOAD DUP2 PUSH20 0xFFFFFFFFFFFFFFFFFFFFFFFFFFFFFFFFFFFFFFFF MUL NOT AND SWAP1 DUP4 PUSH20 0xFFFFFFFFFFFFFFFFFFFFFFFFFFFFFFFFFFFFFFFF AND MUL OR SWAP1 SSTORE POP PUSH1 0x20 DUP3 ADD MLOAD DUP2 PUSH1 0x1 ADD SWAP1 DUP2 PUSH2 0x5DD SWAP2 SWAP1 PUSH2 0xF7D JUMP JUMPDEST POP PUSH1 0x40 DUP3 ADD MLOAD DUP2 PUSH1 0x2 ADD SSTORE POP POP JUMPDEST POP POP JUMP JUMPDEST PUSH1 0x60 PUSH1 0x0 DUP3 SUB PUSH2 0x636 JUMPI PUSH1 0x40 MLOAD DUP1 PUSH1 0x40 ADD PUSH1 0x40 MSTORE DUP1 PUSH1 0x1 DUP2 MSTORE PUSH1 0x20 ADD PUSH32 0x3000000000000000000000000000000000000000000000000000000000000000 DUP2 MSTORE POP SWAP1 POP PUSH2 0x772 JUMP JUMPDEST PUSH1 0x0 DUP3 SWAP1 POP PUSH1 0x0 JUMPDEST PUSH1 0x0 DUP3 EQ PUSH2 0x668 JUMPI DUP1 DUP1 PUSH2 0x651 SWAP1 PUSH2 0x1083 JUMP JUMPDEST SWAP2 POP POP PUSH1 0xA DUP3 PUSH2 0x661 SWAP2 SWAP1 PUSH2 0x10FA JUMP JUMPDEST SWAP2 POP PUSH2 0x63E JUMP JUMPDEST PUSH1 0x0 DUP2 PUSH8 0xFFFFFFFFFFFFFFFF DUP2 GT ISZERO PUSH2 0x684 JUMPI PUSH2 0x683 PUSH2 0xA44 JUMP JUMPDEST JUMPDEST PUSH1 0x40 MLOAD SWAP1 DUP1 DUP3 MSTORE DUP1 PUSH1 0x1F ADD PUSH1 0x1F NOT AND PUSH1 0x20 ADD DUP3 ADD PUSH1 0x40 MSTORE DUP1 ISZERO PUSH2 0x6B6 JUMPI DUP2 PUSH1 0x20 ADD PUSH1 0x1 DUP3 MUL DUP1 CALLDATASIZE DUP4 CALLDATACOPY DUP1 DUP3 ADD SWAP2 POP POP SWAP1 POP JUMPDEST POP SWAP1 POP PUSH1 0x0 DUP3 SWAP1 POP JUMPDEST PUSH1 0x0 DUP7 EQ PUSH2 0x76A JUMPI PUSH1 0x1 DUP2 PUSH2 0x6D4 SWAP2 SWAP1 PUSH2 0xC76 JUMP JUMPDEST SWAP1 POP PUSH1 0x0 PUSH1 0xA DUP1 DUP9 PUSH2 0x6E6 SWAP2 SWAP1 PUSH2 0x10FA JUMP JUMPDEST PUSH2 0x6F0 SWAP2 SWAP1 PUSH2 0x112B JUMP JUMPDEST DUP8 PUSH2 0x6FB SWAP2 SWAP1 PUSH2 0xC76 JUMP JUMPDEST PUSH1 0x30 PUSH2 0x707 SWAP2 SWAP1 PUSH2 0x117A JUMP JUMPDEST SWAP1 POP PUSH1 0x0 DUP2 PUSH1 0xF8 SHL SWAP1 POP DUP1 DUP5 DUP5 DUP2 MLOAD DUP2 LT PUSH2 0x725 JUMPI PUSH2 0x724 PUSH2 0xC18 JUMP JUMPDEST JUMPDEST PUSH1 0x20 ADD ADD SWAP1 PUSH31 0xFFFFFFFFFFFFFFFFFFFFFFFFFFFFFFFFFFFFFFFFFFFFFFFFFFFFFFFFFFFFFF NOT AND SWAP1 DUP2 PUSH1 0x0 BYTE SWAP1 MSTORE8 POP PUSH1 0xA DUP9 PUSH2 0x761 SWAP2 SWAP1 PUSH2 0x10FA JUMP JUMPDEST SWAP8 POP POP POP PUSH2 0x6BF JUMP JUMPDEST DUP2 SWAP5 POP POP POP POP POP JUMPDEST SWAP2 SWAP1 POP JUMP JUMPDEST PUSH1 0x0 PUSH1 0x40 MLOAD SWAP1 POP SWAP1 JUMP JUMPDEST PUSH1 0x0 DUP1 REVERT JUMPDEST PUSH1 0x0 DUP1 REVERT JUMPDEST PUSH1 0x0 DUP2 SWAP1 POP SWAP2 SWAP1 POP JUMP JUMPDEST PUSH2 0x79E DUP2 PUSH2 0x78B JUMP JUMPDEST DUP2 EQ PUSH2 0x7A9 JUMPI PUSH1 0x0 DUP1 REVERT JUMPDEST POP JUMP JUMPDEST PUSH1 0x0 DUP2 CALLDATALOAD SWAP1 POP PUSH2 0x7BB DUP2 PUSH2 0x795 JUMP JUMPDEST SWAP3 SWAP2 POP POP JUMP JUMPDEST PUSH1 0x0 PUSH1 0x20 DUP3 DUP5 SUB SLT ISZERO PUSH2 0x7D7 JUMPI PUSH2 0x7D6 PUSH2 0x781 JUMP JUMPDEST JUMPDEST PUSH1 0x0 PUSH2 0x7E5 DUP5 DUP3 DUP6 ADD PUSH2 0x7AC JUMP JUMPDEST SWAP2 POP POP SWAP3 SWAP2 POP POP JUMP JUMPDEST PUSH1 0x0 PUSH20 0xFFFFFFFFFFFFFFFFFFFFFFFFFFFFFFFFFFFFFFFF DUP3 AND SWAP1 POP SWAP2 SWAP1 POP JUMP JUMPDEST PUSH1 0x0 PUSH2 0x819 DUP3 PUSH2 0x7EE JUMP JUMPDEST SWAP1 POP SWAP2 SWAP1 POP JUMP JUMPDEST PUSH2 0x829 DUP2 PUSH2 0x80E JUMP JUMPDEST DUP3 MSTORE POP POP JUMP JUMPDEST PUSH1 0x0 DUP2 MLOAD SWAP1 POP SWAP2 SWAP1 POP JUMP JUMPDEST PUSH1 0x0 DUP3 DUP3 MSTORE PUSH1 0x20 DUP3 ADD SWAP1 POP SWAP3 SWAP2 POP POP JUMP JUMPDEST PUSH1 0x0 JUMPDEST DUP4 DUP2 LT ISZERO PUSH2 0x869 JUMPI DUP1 DUP3 ADD MLOAD DUP2 DUP5 ADD MSTORE PUSH1 0x20 DUP2 ADD SWAP1 POP PUSH2 0x84E JUMP JUMPDEST PUSH1 0x0 DUP5 DUP5 ADD MSTORE POP POP POP POP JUMP JUMPDEST PUSH1 0x0 PUSH1 0x1F NOT PUSH1 0x1F DUP4 ADD AND SWAP1 POP SWAP2 SWAP1 POP JUMP JUMPDEST PUSH1 0x0 PUSH2 0x891 DUP3 PUSH2 0x82F JUMP JUMPDEST PUSH2 0x89B DUP2 DUP6 PUSH2 0x83A JUMP JUMPDEST SWAP4 POP PUSH2 0x8AB DUP2 DUP6 PUSH1 0x20 DUP7 ADD PUSH2 0x84B JUMP JUMPDEST PUSH2 0x8B4 DUP2 PUSH2 0x875 JUMP JUMPDEST DUP5 ADD SWAP2 POP POP SWAP3 SWAP2 POP POP JUMP JUMPDEST PUSH2 0x8C8 DUP2 PUSH2 0x78B JUMP JUMPDEST DUP3 MSTORE POP POP JUMP JUMPDEST PUSH1 0x0 PUSH1 0x60 DUP3 ADD SWAP1 POP PUSH2 0x8E3 PUSH1 0x0 DUP4 ADD DUP7 PUSH2 0x820 JUMP JUMPDEST DUP2 DUP2 SUB PUSH1 0x20 DUP4 ADD MSTORE PUSH2 0x8F5 DUP2 DUP6 PUSH2 0x886 JUMP JUMPDEST SWAP1 POP PUSH2 0x904 PUSH1 0x40 DUP4 ADD DUP5 PUSH2 0x8BF JUMP JUMPDEST SWAP5 SWAP4 POP POP POP POP JUMP JUMPDEST PUSH1 0x0 DUP2 MLOAD SWAP1 POP SWAP2 SWAP1 POP JUMP JUMPDEST PUSH1 0x0 DUP3 DUP3 MSTORE PUSH1 0x20 DUP3 ADD SWAP1 POP SWAP3 SWAP2 POP POP JUMP JUMPDEST PUSH1 0x0 DUP2 SWAP1 POP PUSH1 0x20 DUP3 ADD SWAP1 POP SWAP2 SWAP1 POP JUMP JUMPDEST PUSH1 0x0 DUP3 DUP3 MSTORE PUSH1 0x20 DUP3 ADD SWAP1 POP SWAP3 SWAP2 POP POP JUMP JUMPDEST PUSH1 0x0 PUSH2 0x954 DUP3 PUSH2 0x82F JUMP JUMPDEST PUSH2 0x95E DUP2 DUP6 PUSH2 0x938 JUMP JUMPDEST SWAP4 POP PUSH2 0x96E DUP2 DUP6 PUSH1 0x20 DUP7 ADD PUSH2 0x84B JUMP JUMPDEST PUSH2 0x977 DUP2 PUSH2 0x875 JUMP JUMPDEST DUP5 ADD SWAP2 POP POP SWAP3 SWAP2 POP POP JUMP JUMPDEST PUSH1 0x0 PUSH2 0x98E DUP4 DUP4 PUSH2 0x949 JUMP JUMPDEST SWAP1 POP SWAP3 SWAP2 POP POP JUMP JUMPDEST PUSH1 0x0 PUSH1 0x20 DUP3 ADD SWAP1 POP SWAP2 SWAP1 POP JUMP JUMPDEST PUSH1 0x0 PUSH2 0x9AE DUP3 PUSH2 0x90C JUMP JUMPDEST PUSH2 0x9B8 DUP2 DUP6 PUSH2 0x917 JUMP JUMPDEST SWAP4 POP DUP4 PUSH1 0x20 DUP3 MUL DUP6 ADD PUSH2 0x9CA DUP6 PUSH2 0x928 JUMP JUMPDEST DUP1 PUSH1 0x0 JUMPDEST DUP6 DUP2 LT ISZERO PUSH2 0xA06 JUMPI DUP5 DUP5 SUB DUP10 MSTORE DUP2 MLOAD PUSH2 0x9E7 DUP6 DUP3 PUSH2 0x982 JUMP JUMPDEST SWAP5 POP PUSH2 0x9F2 DUP4 PUSH2 0x996 JUMP JUMPDEST SWAP3 POP PUSH1 0x20 DUP11 ADD SWAP10 POP POP PUSH1 0x1 DUP2 ADD SWAP1 POP PUSH2 0x9CE JUMP JUMPDEST POP DUP3 SWAP8 POP DUP8 SWAP6 POP POP POP POP POP POP SWAP3 SWAP2 POP POP JUMP JUMPDEST PUSH1 0x0 PUSH1 0x20 DUP3 ADD SWAP1 POP DUP2 DUP2 SUB PUSH1 0x0 DUP4 ADD MSTORE PUSH2 0xA32 DUP2 DUP5 PUSH2 0x9A3 JUMP JUMPDEST SWAP1 POP SWAP3 SWAP2 POP POP JUMP JUMPDEST PUSH1 0x0 DUP1 REVERT JUMPDEST PUSH1 0x0 DUP1 REVERT JUMPDEST PUSH32 0x4E487B7100000000000000000000000000000000000000000000000000000000 PUSH1 0x0 MSTORE PUSH1 0x41 PUSH1 0x4 MSTORE PUSH1 0x24 PUSH1 0x0 REVERT JUMPDEST PUSH2 0xA7C DUP3 PUSH2 0x875 JUMP JUMPDEST DUP2 ADD DUP2 DUP2 LT PUSH8 0xFFFFFFFFFFFFFFFF DUP3 GT OR ISZERO PUSH2 0xA9B JUMPI PUSH2 0xA9A PUSH2 0xA44 JUMP JUMPDEST JUMPDEST DUP1 PUSH1 0x40 MSTORE POP POP POP JUMP JUMPDEST PUSH1 0x0 PUSH2 0xAAE PUSH2 0x777 JUMP JUMPDEST SWAP1 POP PUSH2 0xABA DUP3 DUP3 PUSH2 0xA73 JUMP JUMPDEST SWAP2 SWAP1 POP JUMP JUMPDEST PUSH1 0x0 PUSH8 0xFFFFFFFFFFFFFFFF DUP3 GT ISZERO PUSH2 0xADA JUMPI PUSH2 0xAD9 PUSH2 0xA44 JUMP JUMPDEST JUMPDEST PUSH2 0xAE3 DUP3 PUSH2 0x875 JUMP JUMPDEST SWAP1 POP PUSH1 0x20 DUP2 ADD SWAP1 POP SWAP2 SWAP1 POP JUMP JUMPDEST DUP3 DUP2 DUP4 CALLDATACOPY PUSH1 0x0 DUP4 DUP4 ADD MSTORE POP POP POP JUMP JUMPDEST PUSH1 0x0 PUSH2 0xB12 PUSH2 0xB0D DUP5 PUSH2 0xABF JUMP JUMPDEST PUSH2 0xAA4 JUMP JUMPDEST SWAP1 POP DUP3 DUP2 MSTORE PUSH1 0x20 DUP2 ADD DUP5 DUP5 DUP5 ADD GT ISZERO PUSH2 0xB2E JUMPI PUSH2 0xB2D PUSH2 0xA3F JUMP JUMPDEST JUMPDEST PUSH2 0xB39 DUP5 DUP3 DUP6 PUSH2 0xAF0 JUMP JUMPDEST POP SWAP4 SWAP3 POP POP POP JUMP JUMPDEST PUSH1 0x0 DUP3 PUSH1 0x1F DUP4 ADD SLT PUSH2 0xB56 JUMPI PUSH2 0xB55 PUSH2 0xA3A JUMP JUMPDEST JUMPDEST DUP2 CALLDATALOAD PUSH2 0xB66 DUP5 DUP3 PUSH1 0x20 DUP7 ADD PUSH2 0xAFF JUMP JUMPDEST SWAP2 POP POP SWAP3 SWAP2 POP POP JUMP JUMPDEST PUSH1 0x0 PUSH1 0x20 DUP3 DUP5 SUB SLT ISZERO PUSH2 0xB85 JUMPI PUSH2 0xB84 PUSH2 0x781 JUMP JUMPDEST JUMPDEST PUSH1 0x0 DUP3 ADD CALLDATALOAD PUSH8 0xFFFFFFFFFFFFFFFF DUP2 GT ISZERO PUSH2 0xBA3 JUMPI PUSH2 0xBA2 PUSH2 0x786 JUMP JUMPDEST JUMPDEST PUSH2 0xBAF DUP5 DUP3 DUP6 ADD PUSH2 0xB41 JUMP JUMPDEST SWAP2 POP POP SWAP3 SWAP2 POP POP JUMP JUMPDEST PUSH32 0x4E487B7100000000000000000000000000000000000000000000000000000000 PUSH1 0x0 MSTORE PUSH1 0x22 PUSH1 0x4 MSTORE PUSH1 0x24 PUSH1 0x0 REVERT JUMPDEST PUSH1 0x0 PUSH1 0x2 DUP3 DIV SWAP1 POP PUSH1 0x1 DUP3 AND DUP1 PUSH2 0xBFF JUMPI PUSH1 0x7F DUP3 AND SWAP2 POP JUMPDEST PUSH1 0x20 DUP3 LT DUP2 SUB PUSH2 0xC12 JUMPI PUSH2 0xC11 PUSH2 0xBB8 JUMP JUMPDEST JUMPDEST POP SWAP2 SWAP1 POP JUMP JUMPDEST PUSH32 0x4E487B7100000000000000000000000000000000000000000000000000000000 PUSH1 0x0 MSTORE PUSH1 0x32 PUSH1 0x4 MSTORE PUSH1 0x24 PUSH1 0x0 REVERT JUMPDEST PUSH32 0x4E487B7100000000000000000000000000000000000000000000000000000000 PUSH1 0x0 MSTORE PUSH1 0x11 PUSH1 0x4 MSTORE PUSH1 0x24 PUSH1 0x0 REVERT JUMPDEST PUSH1 0x0 PUSH2 0xC81 DUP3 PUSH2 0x78B JUMP JUMPDEST SWAP2 POP PUSH2 0xC8C DUP4 PUSH2 0x78B JUMP JUMPDEST SWAP3 POP DUP3 DUP3 SUB SWAP1 POP DUP2 DUP2 GT ISZERO PUSH2 0xCA4 JUMPI PUSH2 0xCA3 PUSH2 0xC47 JUMP JUMPDEST JUMPDEST SWAP3 SWAP2 POP POP JUMP JUMPDEST PUSH1 0x0 DUP2 SWAP1 POP SWAP3 SWAP2 POP POP JUMP JUMPDEST PUSH32 0x4D657373616765206973207374696C6C206C6F636B65642E2054696D65207265 PUSH1 0x0 DUP3 ADD MSTORE PUSH32 0x6D61696E696E673A200000000000000000000000000000000000000000000000 PUSH1 0x20 DUP3 ADD MSTORE POP JUMP JUMPDEST PUSH1 0x0 PUSH2 0xD11 PUSH1 0x29 DUP4 PUSH2 0xCAA JUMP JUMPDEST SWAP2 POP PUSH2 0xD1C DUP3 PUSH2 0xCB5 JUMP JUMPDEST PUSH1 0x29 DUP3 ADD SWAP1 POP SWAP2 SWAP1 POP JUMP JUMPDEST PUSH1 0x0 PUSH2 0xD32 DUP3 PUSH2 0x82F JUMP JUMPDEST PUSH2 0xD3C DUP2 DUP6 PUSH2 0xCAA JUMP JUMPDEST SWAP4 POP PUSH2 0xD4C DUP2 DUP6 PUSH1 0x20 DUP7 ADD PUSH2 0x84B JUMP JUMPDEST DUP1 DUP5 ADD SWAP2 POP POP SWAP3 SWAP2 POP POP JUMP JUMPDEST PUSH32 0x207365636F6E6473000000000000000000000000000000000000000000000000 PUSH1 0x0 DUP3 ADD MSTORE POP JUMP JUMPDEST PUSH1 0x0 PUSH2 0xD8E PUSH1 0x8 DUP4 PUSH2 0xCAA JUMP JUMPDEST SWAP2 POP PUSH2 0xD99 DUP3 PUSH2 0xD58 JUMP JUMPDEST PUSH1 0x8 DUP3 ADD SWAP1 POP SWAP2 SWAP1 POP JUMP JUMPDEST PUSH1 0x0 PUSH2 0xDAF DUP3 PUSH2 0xD04 JUMP JUMPDEST SWAP2 POP PUSH2 0xDBB DUP3 DUP5 PUSH2 0xD27 JUMP JUMPDEST SWAP2 POP PUSH2 0xDC6 DUP3 PUSH2 0xD81 JUMP JUMPDEST SWAP2 POP DUP2 SWAP1 POP SWAP3 SWAP2 POP POP JUMP JUMPDEST PUSH1 0x0 DUP2 SWAP1 POP DUP2 PUSH1 0x0 MSTORE PUSH1 0x20 PUSH1 0x0 KECCAK256 SWAP1 POP SWAP2 SWAP1 POP JUMP JUMPDEST PUSH1 0x0 PUSH1 0x20 PUSH1 0x1F DUP4 ADD DIV SWAP1 POP SWAP2 SWAP1 POP JUMP JUMPDEST PUSH1 0x0 DUP3 DUP3 SHL SWAP1 POP SWAP3 SWAP2 POP POP JUMP JUMPDEST PUSH1 0x0 PUSH1 0x8 DUP4 MUL PUSH2 0xE33 PUSH32 0xFFFFFFFFFFFFFFFFFFFFFFFFFFFFFFFFFFFFFFFFFFFFFFFFFFFFFFFFFFFFFFFF DUP3 PUSH2 0xDF6 JUMP JUMPDEST PUSH2 0xE3D DUP7 DUP4 PUSH2 0xDF6 JUMP JUMPDEST SWAP6 POP DUP1 NOT DUP5 AND SWAP4 POP DUP1 DUP7 AND DUP5 OR SWAP3 POP POP POP SWAP4 SWAP3 POP POP POP JUMP JUMPDEST PUSH1 0x0 DUP2 SWAP1 POP SWAP2 SWAP1 POP JUMP JUMPDEST PUSH1 0x0 PUSH2 0xE7A PUSH2 0xE75 PUSH2 0xE70 DUP5 PUSH2 0x78B JUMP JUMPDEST PUSH2 0xE55 JUMP JUMPDEST PUSH2 0x78B JUMP JUMPDEST SWAP1 POP SWAP2 SWAP1 POP JUMP JUMPDEST PUSH1 0x0 DUP2 SWAP1 POP SWAP2 SWAP1 POP JUMP JUMPDEST PUSH2 0xE94 DUP4 PUSH2 0xE5F JUMP JUMPDEST PUSH2 0xEA8 PUSH2 0xEA0 DUP3 PUSH2 0xE81 JUMP JUMPDEST DUP5 DUP5 SLOAD PUSH2 0xE03 JUMP JUMPDEST DUP3 SSTORE POP POP POP POP JUMP JUMPDEST PUSH1 0x0 SWAP1 JUMP JUMPDEST PUSH2 0xEBD PUSH2 0xEB0 JUMP JUMPDEST PUSH2 0xEC8 DUP2 DUP5 DUP5 PUSH2 0xE8B JUMP JUMPDEST POP POP POP JUMP JUMPDEST JUMPDEST DUP2 DUP2 LT ISZERO PUSH2 0xEEC JUMPI PUSH2 0xEE1 PUSH1 0x0 DUP3 PUSH2 0xEB5 JUMP JUMPDEST PUSH1 0x1 DUP2 ADD SWAP1 POP PUSH2 0xECE JUMP JUMPDEST POP POP JUMP JUMPDEST PUSH1 0x1F DUP3 GT ISZERO PUSH2 0xF31 JUMPI PUSH2 0xF02 DUP2 PUSH2 0xDD1 JUMP JUMPDEST PUSH2 0xF0B DUP5 PUSH2 0xDE6 JUMP JUMPDEST DUP2 ADD PUSH1 0x20 DUP6 LT ISZERO PUSH2 0xF1A JUMPI DUP2 SWAP1 POP JUMPDEST PUSH2 0xF2E PUSH2 0xF26 DUP6 PUSH2 0xDE6 JUMP JUMPDEST DUP4 ADD DUP3 PUSH2 0xECD JUMP JUMPDEST POP POP JUMPDEST POP POP POP JUMP JUMPDEST PUSH1 0x0 DUP3 DUP3 SHR SWAP1 POP SWAP3 SWAP2 POP POP JUMP JUMPDEST PUSH1 0x0 PUSH2 0xF54 PUSH1 0x0 NOT DUP5 PUSH1 0x8 MUL PUSH2 0xF36 JUMP JUMPDEST NOT DUP1 DUP4 AND SWAP2 POP POP SWAP3 SWAP2 POP POP JUMP JUMPDEST PUSH1 0x0 PUSH2 0xF6D DUP4 DUP4 PUSH2 0xF43 JUMP JUMPDEST SWAP2 POP DUP3 PUSH1 0x2 MUL DUP3 OR SWAP1 POP SWAP3 SWAP2 POP POP JUMP JUMPDEST PUSH2 0xF86 DUP3 PUSH2 0x82F JUMP JUMPDEST PUSH8 0xFFFFFFFFFFFFFFFF DUP2 GT ISZERO PUSH2 0xF9F JUMPI PUSH2 0xF9E PUSH2 0xA44 JUMP JUMPDEST JUMPDEST PUSH2 0xFA9 DUP3 SLOAD PUSH2 0xBE7 JUMP JUMPDEST PUSH2 0xFB4 DUP3 DUP3 DUP6 PUSH2 0xEF0 JUMP JUMPDEST PUSH1 0x0 PUSH1 0x20 SWAP1 POP PUSH1 0x1F DUP4 GT PUSH1 0x1 DUP2 EQ PUSH2 0xFE7 JUMPI PUSH1 0x0 DUP5 ISZERO PUSH2 0xFD5 JUMPI DUP3 DUP8 ADD MLOAD SWAP1 POP JUMPDEST PUSH2 0xFDF DUP6 DUP3 PUSH2 0xF61 JUMP JUMPDEST DUP7 SSTORE POP PUSH2 0x1047 JUMP JUMPDEST PUSH1 0x1F NOT DUP5 AND PUSH2 0xFF5 DUP7 PUSH2 0xDD1 JUMP JUMPDEST PUSH1 0x0 JUMPDEST DUP3 DUP2 LT ISZERO PUSH2 0x101D JUMPI DUP5 DUP10 ADD MLOAD DUP3 SSTORE PUSH1 0x1 DUP3 ADD SWAP2 POP PUSH1 0x20 DUP6 ADD SWAP5 POP PUSH1 0x20 DUP2 ADD SWAP1 POP PUSH2 0xFF8 JUMP JUMPDEST DUP7 DUP4 LT ISZERO PUSH2 0x103A JUMPI DUP5 DUP10 ADD MLOAD PUSH2 0x1036 PUSH1 0x1F DUP10 AND DUP3 PUSH2 0xF43 JUMP JUMPDEST DUP4 SSTORE POP JUMPDEST PUSH1 0x1 PUSH1 0x2 DUP9 MUL ADD DUP9 SSTORE POP POP POP JUMPDEST POP POP POP POP POP POP JUMP JUMPDEST PUSH1 0x0 PUSH2 0x105A DUP3 PUSH2 0x78B JUMP JUMPDEST SWAP2 POP PUSH2 0x1065 DUP4 PUSH2 0x78B JUMP JUMPDEST SWAP3 POP DUP3 DUP3 ADD SWAP1 POP DUP1 DUP3 GT ISZERO PUSH2 0x107D JUMPI PUSH2 0x107C PUSH2 0xC47 JUMP JUMPDEST JUMPDEST SWAP3 SWAP2 POP POP JUMP JUMPDEST PUSH1 0x0 PUSH2 0x108E DUP3 PUSH2 0x78B JUMP JUMPDEST SWAP2 POP PUSH32 0xFFFFFFFFFFFFFFFFFFFFFFFFFFFFFFFFFFFFFFFFFFFFFFFFFFFFFFFFFFFFFFFF DUP3 SUB PUSH2 0x10C0 JUMPI PUSH2 0x10BF PUSH2 0xC47 JUMP JUMPDEST JUMPDEST PUSH1 0x1 DUP3 ADD SWAP1 POP SWAP2 SWAP1 POP JUMP JUMPDEST PUSH32 0x4E487B7100000000000000000000000000000000000000000000000000000000 PUSH1 0x0 MSTORE PUSH1 0x12 PUSH1 0x4 MSTORE PUSH1 0x24 PUSH1 0x0 REVERT JUMPDEST PUSH1 0x0 PUSH2 0x1105 DUP3 PUSH2 0x78B JUMP JUMPDEST SWAP2 POP PUSH2 0x1110 DUP4 PUSH2 0x78B JUMP JUMPDEST SWAP3 POP DUP3 PUSH2 0x1120 JUMPI PUSH2 0x111F PUSH2 0x10CB JUMP JUMPDEST JUMPDEST DUP3 DUP3 DIV SWAP1 POP SWAP3 SWAP2 POP POP JUMP JUMPDEST PUSH1 0x0 PUSH2 0x1136 DUP3 PUSH2 0x78B JUMP JUMPDEST SWAP2 POP PUSH2 0x1141 DUP4 PUSH2 0x78B JUMP JUMPDEST SWAP3 POP DUP3 DUP3 MUL PUSH2 0x114F DUP2 PUSH2 0x78B JUMP JUMPDEST SWAP2 POP DUP3 DUP3 DIV DUP5 EQ DUP4 ISZERO OR PUSH2 0x1166 JUMPI PUSH2 0x1165 PUSH2 0xC47 JUMP JUMPDEST JUMPDEST POP SWAP3 SWAP2 POP POP JUMP JUMPDEST PUSH1 0x0 PUSH1 0xFF DUP3 AND SWAP1 POP SWAP2 SWAP1 POP JUMP JUMPDEST PUSH1 0x0 PUSH2 0x1185 DUP3 PUSH2 0x116D JUMP JUMPDEST SWAP2 POP PUSH2 0x1190 DUP4 PUSH2 0x116D JUMP JUMPDEST SWAP3 POP DUP3 DUP3 ADD SWAP1 POP PUSH1 0xFF DUP2 GT ISZERO PUSH2 0x11A9 JUMPI PUSH2 0x11A8 PUSH2 0xC47 JUMP JUMPDEST JUMPDEST SWAP3 SWAP2 POP POP JUMP INVALID LOG2 PUSH5 0x6970667358 0x22 SLT KECCAK256 SWAP6 SWAP13 JUMP LOG0 XOR CALLCODE 0xFB 0xF7 PUSH0 ADDRESS 0xB8 0xD5 NUMBER TLOAD SWAP12 SDIV 0x4E PUSH19 0xC8920B7C375D0D26CC0211CD3EF664736F6C63 NUMBER STOP ADDMOD SHL STOP CALLER "
        },
        "methodIdentifiers": {
          "messages(uint256)": "0d80fefd",
          "revealMessage()": "1c3b7bc4",
          "setMessage(string)": "368b8772"
        }
      }
    }
  }
}