{
  "contracts/Timelock.sol": {
    "Timelock": {
      "abi": [
        {
          "inputs": [
            {
              "internalType": "uint256",
              "name": "",
              "type": "uint256"
            }
          ],
          "name": "messages",
          "outputs": [
            {
              "internalType": "address",
              "name": "user",
              "type": "address"
            },
            {
              "internalType": "string",
              "name": "text",
              "type": "string"
            },
            {
              "internalType": "uint256",
              "name": "unlockTime",
              "type": "uint256"
            }
          ],
          "stateMutability": "view",
          "type": "function"
        },
        {
          "inputs": [],
          "name": "revealMessage",
          "outputs": [
            {
              "components": [
                {
                  "internalType": "string",
                  "name": "text",
                  "type": "string"
                },
                {
                  "internalType": "uint256",
                  "name": "unlockTime",
                  "type": "uint256"
                }
              ],
              "internalType": "struct Timelock.RevealedMessage[]",
              "name": "",
              "type": "tuple[]"
            }
          ],
          "stateMutability": "view",
          "type": "function"
        },
        {
          "inputs": [
            {
              "internalType": "string",
              "name": "_message",
              "type": "string"
            }
          ],
          "name": "setMessage",
          "outputs": [],
          "stateMutability": "nonpayable",
          "type": "function"
        }
      ],
      "evm": {
        "bytecode": {
          "linkReferences": {},
          "object": "6080604052348015600f57600080fd5b506112e08061001f6000396000f3fe608060405234801561001057600080fd5b50600436106100415760003560e01c80630d80fefd146100465780631c3b7bc414610078578063368b877214610096575b600080fd5b610060600480360381019061005b9190610870565b6100b2565b60405161006f9392919061097d565b60405180910390f35b610080610194565b60405161008d9190610b13565b60405180910390f35b6100b060048036038101906100ab9190610c6a565b610404565b005b600081815481106100c257600080fd5b90600052602060002090600302016000915090508060000160009054906101000a900473ffffffffffffffffffffffffffffffffffffffff169080600101805461010b90610ce2565b80601f016020809104026020016040519081016040528092919081815260200182805461013790610ce2565b80156101845780601f1061015957610100808354040283529160200191610184565b820191906000526020600020905b81548152906001019060200180831161016757829003601f168201915b5050505050908060020154905083565b60606000808054905067ffffffffffffffff8111156101b6576101b5610b3f565b5b6040519080825280602002602001820160405280156101ef57816020015b6101dc61080c565b8152602001906001900390816101d45790505b50905060005b6000805490508110156103fc576000818154811061021657610215610d13565b5b9060005260206000209060030201600201544210156102e9576000426000838154811061024657610245610d13565b5b9060005260206000209060030201600201546102629190610d71565b9050604051806040016040528061027883610684565b6040516020016102889190610e9f565b6040516020818303038152906040528152602001600084815481106102b0576102af610d13565b5b9060005260206000209060030201600201548152508383815181106102d8576102d7610d13565b5b6020026020010181905250506103ef565b60405180604001604052806000838154811061030857610307610d13565b5b9060005260206000209060030201600101805461032490610ce2565b80601f016020809104026020016040519081016040528092919081815260200182805461035090610ce2565b801561039d5780601f106103725761010080835404028352916020019161039d565b820191906000526020600020905b81548152906001019060200180831161038057829003601f168201915b50505050508152602001600083815481106103bb576103ba610d13565b5b9060005260206000209060030201600201548152508282815181106103e3576103e2610d13565b5b60200260200101819052505b80806001019150506101f5565b508091505090565b6000805b6000805490508110156105a8573373ffffffffffffffffffffffffffffffffffffffff16600082815481106104405761043f610d13565b5b906000526020600020906003020160000160009054906101000a900473ffffffffffffffffffffffffffffffffffffffff1673ffffffffffffffffffffffffffffffffffffffff160361059b57600081815481106104a1576104a0610d13565b5b9060005260206000209060030201600201544210156105285782600082815481106104cf576104ce610d13565b5b906000526020600020906003020160010190816104ec9190611078565b50600f426104fa919061114a565b6000828154811061050e5761050d610d13565b5b906000526020600020906003020160020181905550610592565b826000828154811061053d5761053c610d13565b5b9060005260206000209060030201600101908161055a9190611078565b50600f42610568919061114a565b6000828154811061057c5761057b610d13565b5b9060005260206000209060030201600201819055505b600191506105a8565b8080600101915050610408565b508061068057600060405180606001604052803373ffffffffffffffffffffffffffffffffffffffff168152602001848152602001600f426105ea919061114a565b815250908060018154018082558091505060019003906000526020600020906003020160009091909190915060008201518160000160006101000a81548173ffffffffffffffffffffffffffffffffffffffff021916908373ffffffffffffffffffffffffffffffffffffffff16021790555060208201518160010190816106729190611078565b506040820151816002015550505b5050565b6060600082036106cb576040518060400160405280600181526020017f30000000000000000000000000000000000000000000000000000000000000008152509050610807565b600082905060005b600082146106fd5780806106e69061117e565b915050600a826106f691906111f5565b91506106d3565b60008167ffffffffffffffff81111561071957610718610b3f565b5b6040519080825280601f01601f19166020018201604052801561074b5781602001600182028036833780820191505090505b50905060008290505b600086146107ff576001816107699190610d71565b90506000600a808861077b91906111f5565b6107859190611226565b876107909190610d71565b603061079c9190611275565b905060008160f81b9050808484815181106107ba576107b9610d13565b5b60200101907effffffffffffffffffffffffffffffffffffffffffffffffffffffffffffff1916908160001a905350600a886107f691906111f5565b97505050610754565b819450505050505b919050565b604051806040016040528060608152602001600081525090565b6000604051905090565b600080fd5b600080fd5b6000819050919050565b61084d8161083a565b811461085857600080fd5b50565b60008135905061086a81610844565b92915050565b60006020828403121561088657610885610830565b5b60006108948482850161085b565b91505092915050565b600073ffffffffffffffffffffffffffffffffffffffff82169050919050565b60006108c88261089d565b9050919050565b6108d8816108bd565b82525050565b600081519050919050565b600082825260208201905092915050565b60005b838110156109185780820151818401526020810190506108fd565b60008484015250505050565b6000601f19601f8301169050919050565b6000610940826108de565b61094a81856108e9565b935061095a8185602086016108fa565b61096381610924565b840191505092915050565b6109778161083a565b82525050565b600060608201905061099260008301866108cf565b81810360208301526109a48185610935565b90506109b3604083018461096e565b949350505050565b600081519050919050565b600082825260208201905092915050565b6000819050602082019050919050565b600082825260208201905092915050565b6000610a03826108de565b610a0d81856109e7565b9350610a1d8185602086016108fa565b610a2681610924565b840191505092915050565b610a3a8161083a565b82525050565b60006040830160008301518482036000860152610a5d82826109f8565b9150506020830151610a726020860182610a31565b508091505092915050565b6000610a898383610a40565b905092915050565b6000602082019050919050565b6000610aa9826109bb565b610ab381856109c6565b935083602082028501610ac5856109d7565b8060005b85811015610b015784840389528151610ae28582610a7d565b9450610aed83610a91565b925060208a01995050600181019050610ac9565b50829750879550505050505092915050565b60006020820190508181036000830152610b2d8184610a9e565b905092915050565b600080fd5b600080fd5b7f4e487b7100000000000000000000000000000000000000000000000000000000600052604160045260246000fd5b610b7782610924565b810181811067ffffffffffffffff82111715610b9657610b95610b3f565b5b80604052505050565b6000610ba9610826565b9050610bb58282610b6e565b919050565b600067ffffffffffffffff821115610bd557610bd4610b3f565b5b610bde82610924565b9050602081019050919050565b82818337600083830152505050565b6000610c0d610c0884610bba565b610b9f565b905082815260208101848484011115610c2957610c28610b3a565b5b610c34848285610beb565b509392505050565b600082601f830112610c5157610c50610b35565b5b8135610c61848260208601610bfa565b91505092915050565b600060208284031215610c8057610c7f610830565b5b600082013567ffffffffffffffff811115610c9e57610c9d610835565b5b610caa84828501610c3c565b91505092915050565b7f4e487b7100000000000000000000000000000000000000000000000000000000600052602260045260246000fd5b60006002820490506001821680610cfa57607f821691505b602082108103610d0d57610d0c610cb3565b5b50919050565b7f4e487b7100000000000000000000000000000000000000000000000000000000600052603260045260246000fd5b7f4e487b7100000000000000000000000000000000000000000000000000000000600052601160045260246000fd5b6000610d7c8261083a565b9150610d878361083a565b9250828203905081811115610d9f57610d9e610d42565b5b92915050565b600081905092915050565b7f4d657373616765206973207374696c6c206c6f636b65642e2054696d6520726560008201527f6d61696e696e673a200000000000000000000000000000000000000000000000602082015250565b6000610e0c602983610da5565b9150610e1782610db0565b602982019050919050565b6000610e2d826108de565b610e378185610da5565b9350610e478185602086016108fa565b80840191505092915050565b7f207365636f6e6473000000000000000000000000000000000000000000000000600082015250565b6000610e89600883610da5565b9150610e9482610e53565b600882019050919050565b6000610eaa82610dff565b9150610eb68284610e22565b9150610ec182610e7c565b915081905092915050565b60008190508160005260206000209050919050565b60006020601f8301049050919050565b600082821b905092915050565b600060088302610f2e7fffffffffffffffffffffffffffffffffffffffffffffffffffffffffffffffff82610ef1565b610f388683610ef1565b95508019841693508086168417925050509392505050565b6000819050919050565b6000610f75610f70610f6b8461083a565b610f50565b61083a565b9050919050565b6000819050919050565b610f8f83610f5a565b610fa3610f9b82610f7c565b848454610efe565b825550505050565b600090565b610fb8610fab565b610fc3818484610f86565b505050565b5b81811015610fe757610fdc600082610fb0565b600181019050610fc9565b5050565b601f82111561102c57610ffd81610ecc565b61100684610ee1565b81016020851015611015578190505b61102961102185610ee1565b830182610fc8565b50505b505050565b600082821c905092915050565b600061104f60001984600802611031565b1980831691505092915050565b6000611068838361103e565b9150826002028217905092915050565b611081826108de565b67ffffffffffffffff81111561109a57611099610b3f565b5b6110a48254610ce2565b6110af828285610feb565b600060209050601f8311600181146110e257600084156110d0578287015190505b6110da858261105c565b865550611142565b601f1984166110f086610ecc565b60005b82811015611118578489015182556001820191506020850194506020810190506110f3565b868310156111355784890151611131601f89168261103e565b8355505b6001600288020188555050505b505050505050565b60006111558261083a565b91506111608361083a565b925082820190508082111561117857611177610d42565b5b92915050565b60006111898261083a565b91507fffffffffffffffffffffffffffffffffffffffffffffffffffffffffffffffff82036111bb576111ba610d42565b5b600182019050919050565b7f4e487b7100000000000000000000000000000000000000000000000000000000600052601260045260246000fd5b60006112008261083a565b915061120b8361083a565b92508261121b5761121a6111c6565b5b828204905092915050565b60006112318261083a565b915061123c8361083a565b925082820261124a8161083a565b9150828204841483151761126157611260610d42565b5b5092915050565b600060ff82169050919050565b600061128082611268565b915061128b83611268565b9250828201905060ff8111156112a4576112a3610d42565b5b9291505056fea26469706673582212205c89520c34e113e733745e3bab3a13a4b54a8a2ddc69a9fe7f5247ea9f0310a464736f6c634300081b0033",
          "opcodes": "PUSH1 0x80 PUSH1 0x40 MSTORE CALLVALUE DUP1 ISZERO PUSH1 0xF JUMPI PUSH1 0x0 DUP1 REVERT JUMPDEST POP PUSH2 0x12E0 DUP1 PUSH2 0x1F PUSH1 0x0 CODECOPY PUSH1 0x0 RETURN INVALID PUSH1 0x80 PUSH1 0x40 MSTORE CALLVALUE DUP1 ISZERO PUSH2 0x10 JUMPI PUSH1 0x0 DUP1 REVERT JUMPDEST POP PUSH1 0x4 CALLDATASIZE LT PUSH2 0x41 JUMPI PUSH1 0x0 CALLDATALOAD PUSH1 0xE0 SHR DUP1 PUSH4 0xD80FEFD EQ PUSH2 0x46 JUMPI DUP1 PUSH4 0x1C3B7BC4 EQ PUSH2 0x78 JUMPI DUP1 PUSH4 0x368B8772 EQ PUSH2 0x96 JUMPI JUMPDEST PUSH1 0x0 DUP1 REVERT JUMPDEST PUSH2 0x60 PUSH1 0x4 DUP1 CALLDATASIZE SUB DUP2 ADD SWAP1 PUSH2 0x5B SWAP2 SWAP1 PUSH2 0x870 JUMP JUMPDEST PUSH2 0xB2 JUMP JUMPDEST PUSH1 0x40 MLOAD PUSH2 0x6F SWAP4 SWAP3 SWAP2 SWAP1 PUSH2 0x97D JUMP JUMPDEST PUSH1 0x40 MLOAD DUP1 SWAP2 SUB SWAP1 RETURN JUMPDEST PUSH2 0x80 PUSH2 0x194 JUMP JUMPDEST PUSH1 0x40 MLOAD PUSH2 0x8D SWAP2 SWAP1 PUSH2 0xB13 JUMP JUMPDEST PUSH1 0x40 MLOAD DUP1 SWAP2 SUB SWAP1 RETURN JUMPDEST PUSH2 0xB0 PUSH1 0x4 DUP1 CALLDATASIZE SUB DUP2 ADD SWAP1 PUSH2 0xAB SWAP2 SWAP1 PUSH2 0xC6A JUMP JUMPDEST PUSH2 0x404 JUMP JUMPDEST STOP JUMPDEST PUSH1 0x0 DUP2 DUP2 SLOAD DUP2 LT PUSH2 0xC2 JUMPI PUSH1 0x0 DUP1 REVERT JUMPDEST SWAP1 PUSH1 0x0 MSTORE PUSH1 0x20 PUSH1 0x0 KECCAK256 SWAP1 PUSH1 0x3 MUL ADD PUSH1 0x0 SWAP2 POP SWAP1 POP DUP1 PUSH1 0x0 ADD PUSH1 0x0 SWAP1 SLOAD SWAP1 PUSH2 0x100 EXP SWAP1 DIV PUSH20 0xFFFFFFFFFFFFFFFFFFFFFFFFFFFFFFFFFFFFFFFF AND SWAP1 DUP1 PUSH1 0x1 ADD DUP1 SLOAD PUSH2 0x10B SWAP1 PUSH2 0xCE2 JUMP JUMPDEST DUP1 PUSH1 0x1F ADD PUSH1 0x20 DUP1 SWAP2 DIV MUL PUSH1 0x20 ADD PUSH1 0x40 MLOAD SWAP1 DUP2 ADD PUSH1 0x40 MSTORE DUP1 SWAP3 SWAP2 SWAP1 DUP2 DUP2 MSTORE PUSH1 0x20 ADD DUP3 DUP1 SLOAD PUSH2 0x137 SWAP1 PUSH2 0xCE2 JUMP JUMPDEST DUP1 ISZERO PUSH2 0x184 JUMPI DUP1 PUSH1 0x1F LT PUSH2 0x159 JUMPI PUSH2 0x100 DUP1 DUP4 SLOAD DIV MUL DUP4 MSTORE SWAP2 PUSH1 0x20 ADD SWAP2 PUSH2 0x184 JUMP JUMPDEST DUP3 ADD SWAP2 SWAP1 PUSH1 0x0 MSTORE PUSH1 0x20 PUSH1 0x0 KECCAK256 SWAP1 JUMPDEST DUP2 SLOAD DUP2 MSTORE SWAP1 PUSH1 0x1 ADD SWAP1 PUSH1 0x20 ADD DUP1 DUP4 GT PUSH2 0x167 JUMPI DUP3 SWAP1 SUB PUSH1 0x1F AND DUP3 ADD SWAP2 JUMPDEST POP POP POP POP POP SWAP1 DUP1 PUSH1 0x2 ADD SLOAD SWAP1 POP DUP4 JUMP JUMPDEST PUSH1 0x60 PUSH1 0x0 DUP1 DUP1 SLOAD SWAP1 POP PUSH8 0xFFFFFFFFFFFFFFFF DUP2 GT ISZERO PUSH2 0x1B6 JUMPI PUSH2 0x1B5 PUSH2 0xB3F JUMP JUMPDEST JUMPDEST PUSH1 0x40 MLOAD SWAP1 DUP1 DUP3 MSTORE DUP1 PUSH1 0x20 MUL PUSH1 0x20 ADD DUP3 ADD PUSH1 0x40 MSTORE DUP1 ISZERO PUSH2 0x1EF JUMPI DUP2 PUSH1 0x20 ADD JUMPDEST PUSH2 0x1DC PUSH2 0x80C JUMP JUMPDEST DUP2 MSTORE PUSH1 0x20 ADD SWAP1 PUSH1 0x1 SWAP1 SUB SWAP1 DUP2 PUSH2 0x1D4 JUMPI SWAP1 POP JUMPDEST POP SWAP1 POP PUSH1 0x0 JUMPDEST PUSH1 0x0 DUP1 SLOAD SWAP1 POP DUP2 LT ISZERO PUSH2 0x3FC JUMPI PUSH1 0x0 DUP2 DUP2 SLOAD DUP2 LT PUSH2 0x216 JUMPI PUSH2 0x215 PUSH2 0xD13 JUMP JUMPDEST JUMPDEST SWAP1 PUSH1 0x0 MSTORE PUSH1 0x20 PUSH1 0x0 KECCAK256 SWAP1 PUSH1 0x3 MUL ADD PUSH1 0x2 ADD SLOAD TIMESTAMP LT ISZERO PUSH2 0x2E9 JUMPI PUSH1 0x0 TIMESTAMP PUSH1 0x0 DUP4 DUP2 SLOAD DUP2 LT PUSH2 0x246 JUMPI PUSH2 0x245 PUSH2 0xD13 JUMP JUMPDEST JUMPDEST SWAP1 PUSH1 0x0 MSTORE PUSH1 0x20 PUSH1 0x0 KECCAK256 SWAP1 PUSH1 0x3 MUL ADD PUSH1 0x2 ADD SLOAD PUSH2 0x262 SWAP2 SWAP1 PUSH2 0xD71 JUMP JUMPDEST SWAP1 POP PUSH1 0x40 MLOAD DUP1 PUSH1 0x40 ADD PUSH1 0x40 MSTORE DUP1 PUSH2 0x278 DUP4 PUSH2 0x684 JUMP JUMPDEST PUSH1 0x40 MLOAD PUSH1 0x20 ADD PUSH2 0x288 SWAP2 SWAP1 PUSH2 0xE9F JUMP JUMPDEST PUSH1 0x40 MLOAD PUSH1 0x20 DUP2 DUP4 SUB SUB DUP2 MSTORE SWAP1 PUSH1 0x40 MSTORE DUP2 MSTORE PUSH1 0x20 ADD PUSH1 0x0 DUP5 DUP2 SLOAD DUP2 LT PUSH2 0x2B0 JUMPI PUSH2 0x2AF PUSH2 0xD13 JUMP JUMPDEST JUMPDEST SWAP1 PUSH1 0x0 MSTORE PUSH1 0x20 PUSH1 0x0 KECCAK256 SWAP1 PUSH1 0x3 MUL ADD PUSH1 0x2 ADD SLOAD DUP2 MSTORE POP DUP4 DUP4 DUP2 MLOAD DUP2 LT PUSH2 0x2D8 JUMPI PUSH2 0x2D7 PUSH2 0xD13 JUMP JUMPDEST JUMPDEST PUSH1 0x20 MUL PUSH1 0x20 ADD ADD DUP2 SWAP1 MSTORE POP POP PUSH2 0x3EF JUMP JUMPDEST PUSH1 0x40 MLOAD DUP1 PUSH1 0x40 ADD PUSH1 0x40 MSTORE DUP1 PUSH1 0x0 DUP4 DUP2 SLOAD DUP2 LT PUSH2 0x308 JUMPI PUSH2 0x307 PUSH2 0xD13 JUMP JUMPDEST JUMPDEST SWAP1 PUSH1 0x0 MSTORE PUSH1 0x20 PUSH1 0x0 KECCAK256 SWAP1 PUSH1 0x3 MUL ADD PUSH1 0x1 ADD DUP1 SLOAD PUSH2 0x324 SWAP1 PUSH2 0xCE2 JUMP JUMPDEST DUP1 PUSH1 0x1F ADD PUSH1 0x20 DUP1 SWAP2 DIV MUL PUSH1 0x20 ADD PUSH1 0x40 MLOAD SWAP1 DUP2 ADD PUSH1 0x40 MSTORE DUP1 SWAP3 SWAP2 SWAP1 DUP2 DUP2 MSTORE PUSH1 0x20 ADD DUP3 DUP1 SLOAD PUSH2 0x350 SWAP1 PUSH2 0xCE2 JUMP JUMPDEST DUP1 ISZERO PUSH2 0x39D JUMPI DUP1 PUSH1 0x1F LT PUSH2 0x372 JUMPI PUSH2 0x100 DUP1 DUP4 SLOAD DIV MUL DUP4 MSTORE SWAP2 PUSH1 0x20 ADD SWAP2 PUSH2 0x39D JUMP JUMPDEST DUP3 ADD SWAP2 SWAP1 PUSH1 0x0 MSTORE PUSH1 0x20 PUSH1 0x0 KECCAK256 SWAP1 JUMPDEST DUP2 SLOAD DUP2 MSTORE SWAP1 PUSH1 0x1 ADD SWAP1 PUSH1 0x20 ADD DUP1 DUP4 GT PUSH2 0x380 JUMPI DUP3 SWAP1 SUB PUSH1 0x1F AND DUP3 ADD SWAP2 JUMPDEST POP POP POP POP POP DUP2 MSTORE PUSH1 0x20 ADD PUSH1 0x0 DUP4 DUP2 SLOAD DUP2 LT PUSH2 0x3BB JUMPI PUSH2 0x3BA PUSH2 0xD13 JUMP JUMPDEST JUMPDEST SWAP1 PUSH1 0x0 MSTORE PUSH1 0x20 PUSH1 0x0 KECCAK256 SWAP1 PUSH1 0x3 MUL ADD PUSH1 0x2 ADD SLOAD DUP2 MSTORE POP DUP3 DUP3 DUP2 MLOAD DUP2 LT PUSH2 0x3E3 JUMPI PUSH2 0x3E2 PUSH2 0xD13 JUMP JUMPDEST JUMPDEST PUSH1 0x20 MUL PUSH1 0x20 ADD ADD DUP2 SWAP1 MSTORE POP JUMPDEST DUP1 DUP1 PUSH1 0x1 ADD SWAP2 POP POP PUSH2 0x1F5 JUMP JUMPDEST POP DUP1 SWAP2 POP POP SWAP1 JUMP JUMPDEST PUSH1 0x0 DUP1 JUMPDEST PUSH1 0x0 DUP1 SLOAD SWAP1 POP DUP2 LT ISZERO PUSH2 0x5A8 JUMPI CALLER PUSH20 0xFFFFFFFFFFFFFFFFFFFFFFFFFFFFFFFFFFFFFFFF AND PUSH1 0x0 DUP3 DUP2 SLOAD DUP2 LT PUSH2 0x440 JUMPI PUSH2 0x43F PUSH2 0xD13 JUMP JUMPDEST JUMPDEST SWAP1 PUSH1 0x0 MSTORE PUSH1 0x20 PUSH1 0x0 KECCAK256 SWAP1 PUSH1 0x3 MUL ADD PUSH1 0x0 ADD PUSH1 0x0 SWAP1 SLOAD SWAP1 PUSH2 0x100 EXP SWAP1 DIV PUSH20 0xFFFFFFFFFFFFFFFFFFFFFFFFFFFFFFFFFFFFFFFF AND PUSH20 0xFFFFFFFFFFFFFFFFFFFFFFFFFFFFFFFFFFFFFFFF AND SUB PUSH2 0x59B JUMPI PUSH1 0x0 DUP2 DUP2 SLOAD DUP2 LT PUSH2 0x4A1 JUMPI PUSH2 0x4A0 PUSH2 0xD13 JUMP JUMPDEST JUMPDEST SWAP1 PUSH1 0x0 MSTORE PUSH1 0x20 PUSH1 0x0 KECCAK256 SWAP1 PUSH1 0x3 MUL ADD PUSH1 0x2 ADD SLOAD TIMESTAMP LT ISZERO PUSH2 0x528 JUMPI DUP3 PUSH1 0x0 DUP3 DUP2 SLOAD DUP2 LT PUSH2 0x4CF JUMPI PUSH2 0x4CE PUSH2 0xD13 JUMP JUMPDEST JUMPDEST SWAP1 PUSH1 0x0 MSTORE PUSH1 0x20 PUSH1 0x0 KECCAK256 SWAP1 PUSH1 0x3 MUL ADD PUSH1 0x1 ADD SWAP1 DUP2 PUSH2 0x4EC SWAP2 SWAP1 PUSH2 0x1078 JUMP JUMPDEST POP PUSH1 0xF TIMESTAMP PUSH2 0x4FA SWAP2 SWAP1 PUSH2 0x114A JUMP JUMPDEST PUSH1 0x0 DUP3 DUP2 SLOAD DUP2 LT PUSH2 0x50E JUMPI PUSH2 0x50D PUSH2 0xD13 JUMP JUMPDEST JUMPDEST SWAP1 PUSH1 0x0 MSTORE PUSH1 0x20 PUSH1 0x0 KECCAK256 SWAP1 PUSH1 0x3 MUL ADD PUSH1 0x2 ADD DUP2 SWAP1 SSTORE POP PUSH2 0x592 JUMP JUMPDEST DUP3 PUSH1 0x0 DUP3 DUP2 SLOAD DUP2 LT PUSH2 0x53D JUMPI PUSH2 0x53C PUSH2 0xD13 JUMP JUMPDEST JUMPDEST SWAP1 PUSH1 0x0 MSTORE PUSH1 0x20 PUSH1 0x0 KECCAK256 SWAP1 PUSH1 0x3 MUL ADD PUSH1 0x1 ADD SWAP1 DUP2 PUSH2 0x55A SWAP2 SWAP1 PUSH2 0x1078 JUMP JUMPDEST POP PUSH1 0xF TIMESTAMP PUSH2 0x568 SWAP2 SWAP1 PUSH2 0x114A JUMP JUMPDEST PUSH1 0x0 DUP3 DUP2 SLOAD DUP2 LT PUSH2 0x57C JUMPI PUSH2 0x57B PUSH2 0xD13 JUMP JUMPDEST JUMPDEST SWAP1 PUSH1 0x0 MSTORE PUSH1 0x20 PUSH1 0x0 KECCAK256 SWAP1 PUSH1 0x3 MUL ADD PUSH1 0x2 ADD DUP2 SWAP1 SSTORE POP JUMPDEST PUSH1 0x1 SWAP2 POP PUSH2 0x5A8 JUMP JUMPDEST DUP1 DUP1 PUSH1 0x1 ADD SWAP2 POP POP PUSH2 0x408 JUMP JUMPDEST POP DUP1 PUSH2 0x680 JUMPI PUSH1 0x0 PUSH1 0x40 MLOAD DUP1 PUSH1 0x60 ADD PUSH1 0x40 MSTORE DUP1 CALLER PUSH20 0xFFFFFFFFFFFFFFFFFFFFFFFFFFFFFFFFFFFFFFFF AND DUP2 MSTORE PUSH1 0x20 ADD DUP5 DUP2 MSTORE PUSH1 0x20 ADD PUSH1 0xF TIMESTAMP PUSH2 0x5EA SWAP2 SWAP1 PUSH2 0x114A JUMP JUMPDEST DUP2 MSTORE POP SWAP1 DUP1 PUSH1 0x1 DUP2 SLOAD ADD DUP1 DUP3 SSTORE DUP1 SWAP2 POP POP PUSH1 0x1 SWAP1 SUB SWAP1 PUSH1 0x0 MSTORE PUSH1 0x20 PUSH1 0x0 KECCAK256 SWAP1 PUSH1 0x3 MUL ADD PUSH1 0x0 SWAP1 SWAP2 SWAP1 SWAP2 SWAP1 SWAP2 POP PUSH1 0x0 DUP3 ADD MLOAD DUP2 PUSH1 0x0 ADD PUSH1 0x0 PUSH2 0x100 EXP DUP2 SLOAD DUP2 PUSH20 0xFFFFFFFFFFFFFFFFFFFFFFFFFFFFFFFFFFFFFFFF MUL NOT AND SWAP1 DUP4 PUSH20 0xFFFFFFFFFFFFFFFFFFFFFFFFFFFFFFFFFFFFFFFF AND MUL OR SWAP1 SSTORE POP PUSH1 0x20 DUP3 ADD MLOAD DUP2 PUSH1 0x1 ADD SWAP1 DUP2 PUSH2 0x672 SWAP2 SWAP1 PUSH2 0x1078 JUMP JUMPDEST POP PUSH1 0x40 DUP3 ADD MLOAD DUP2 PUSH1 0x2 ADD SSTORE POP POP JUMPDEST POP POP JUMP JUMPDEST PUSH1 0x60 PUSH1 0x0 DUP3 SUB PUSH2 0x6CB JUMPI PUSH1 0x40 MLOAD DUP1 PUSH1 0x40 ADD PUSH1 0x40 MSTORE DUP1 PUSH1 0x1 DUP2 MSTORE PUSH1 0x20 ADD PUSH32 0x3000000000000000000000000000000000000000000000000000000000000000 DUP2 MSTORE POP SWAP1 POP PUSH2 0x807 JUMP JUMPDEST PUSH1 0x0 DUP3 SWAP1 POP PUSH1 0x0 JUMPDEST PUSH1 0x0 DUP3 EQ PUSH2 0x6FD JUMPI DUP1 DUP1 PUSH2 0x6E6 SWAP1 PUSH2 0x117E JUMP JUMPDEST SWAP2 POP POP PUSH1 0xA DUP3 PUSH2 0x6F6 SWAP2 SWAP1 PUSH2 0x11F5 JUMP JUMPDEST SWAP2 POP PUSH2 0x6D3 JUMP JUMPDEST PUSH1 0x0 DUP2 PUSH8 0xFFFFFFFFFFFFFFFF DUP2 GT ISZERO PUSH2 0x719 JUMPI PUSH2 0x718 PUSH2 0xB3F JUMP JUMPDEST JUMPDEST PUSH1 0x40 MLOAD SWAP1 DUP1 DUP3 MSTORE DUP1 PUSH1 0x1F ADD PUSH1 0x1F NOT AND PUSH1 0x20 ADD DUP3 ADD PUSH1 0x40 MSTORE DUP1 ISZERO PUSH2 0x74B JUMPI DUP2 PUSH1 0x20 ADD PUSH1 0x1 DUP3 MUL DUP1 CALLDATASIZE DUP4 CALLDATACOPY DUP1 DUP3 ADD SWAP2 POP POP SWAP1 POP JUMPDEST POP SWAP1 POP PUSH1 0x0 DUP3 SWAP1 POP JUMPDEST PUSH1 0x0 DUP7 EQ PUSH2 0x7FF JUMPI PUSH1 0x1 DUP2 PUSH2 0x769 SWAP2 SWAP1 PUSH2 0xD71 JUMP JUMPDEST SWAP1 POP PUSH1 0x0 PUSH1 0xA DUP1 DUP9 PUSH2 0x77B SWAP2 SWAP1 PUSH2 0x11F5 JUMP JUMPDEST PUSH2 0x785 SWAP2 SWAP1 PUSH2 0x1226 JUMP JUMPDEST DUP8 PUSH2 0x790 SWAP2 SWAP1 PUSH2 0xD71 JUMP JUMPDEST PUSH1 0x30 PUSH2 0x79C SWAP2 SWAP1 PUSH2 0x1275 JUMP JUMPDEST SWAP1 POP PUSH1 0x0 DUP2 PUSH1 0xF8 SHL SWAP1 POP DUP1 DUP5 DUP5 DUP2 MLOAD DUP2 LT PUSH2 0x7BA JUMPI PUSH2 0x7B9 PUSH2 0xD13 JUMP JUMPDEST JUMPDEST PUSH1 0x20 ADD ADD SWAP1 PUSH31 0xFFFFFFFFFFFFFFFFFFFFFFFFFFFFFFFFFFFFFFFFFFFFFFFFFFFFFFFFFFFFFF NOT AND SWAP1 DUP2 PUSH1 0x0 BYTE SWAP1 MSTORE8 POP PUSH1 0xA DUP9 PUSH2 0x7F6 SWAP2 SWAP1 PUSH2 0x11F5 JUMP JUMPDEST SWAP8 POP POP POP PUSH2 0x754 JUMP JUMPDEST DUP2 SWAP5 POP POP POP POP POP JUMPDEST SWAP2 SWAP1 POP JUMP JUMPDEST PUSH1 0x40 MLOAD DUP1 PUSH1 0x40 ADD PUSH1 0x40 MSTORE DUP1 PUSH1 0x60 DUP2 MSTORE PUSH1 0x20 ADD PUSH1 0x0 DUP2 MSTORE POP SWAP1 JUMP JUMPDEST PUSH1 0x0 PUSH1 0x40 MLOAD SWAP1 POP SWAP1 JUMP JUMPDEST PUSH1 0x0 DUP1 REVERT JUMPDEST PUSH1 0x0 DUP1 REVERT JUMPDEST PUSH1 0x0 DUP2 SWAP1 POP SWAP2 SWAP1 POP JUMP JUMPDEST PUSH2 0x84D DUP2 PUSH2 0x83A JUMP JUMPDEST DUP2 EQ PUSH2 0x858 JUMPI PUSH1 0x0 DUP1 REVERT JUMPDEST POP JUMP JUMPDEST PUSH1 0x0 DUP2 CALLDATALOAD SWAP1 POP PUSH2 0x86A DUP2 PUSH2 0x844 JUMP JUMPDEST SWAP3 SWAP2 POP POP JUMP JUMPDEST PUSH1 0x0 PUSH1 0x20 DUP3 DUP5 SUB SLT ISZERO PUSH2 0x886 JUMPI PUSH2 0x885 PUSH2 0x830 JUMP JUMPDEST JUMPDEST PUSH1 0x0 PUSH2 0x894 DUP5 DUP3 DUP6 ADD PUSH2 0x85B JUMP JUMPDEST SWAP2 POP POP SWAP3 SWAP2 POP POP JUMP JUMPDEST PUSH1 0x0 PUSH20 0xFFFFFFFFFFFFFFFFFFFFFFFFFFFFFFFFFFFFFFFF DUP3 AND SWAP1 POP SWAP2 SWAP1 POP JUMP JUMPDEST PUSH1 0x0 PUSH2 0x8C8 DUP3 PUSH2 0x89D JUMP JUMPDEST SWAP1 POP SWAP2 SWAP1 POP JUMP JUMPDEST PUSH2 0x8D8 DUP2 PUSH2 0x8BD JUMP JUMPDEST DUP3 MSTORE POP POP JUMP JUMPDEST PUSH1 0x0 DUP2 MLOAD SWAP1 POP SWAP2 SWAP1 POP JUMP JUMPDEST PUSH1 0x0 DUP3 DUP3 MSTORE PUSH1 0x20 DUP3 ADD SWAP1 POP SWAP3 SWAP2 POP POP JUMP JUMPDEST PUSH1 0x0 JUMPDEST DUP4 DUP2 LT ISZERO PUSH2 0x918 JUMPI DUP1 DUP3 ADD MLOAD DUP2 DUP5 ADD MSTORE PUSH1 0x20 DUP2 ADD SWAP1 POP PUSH2 0x8FD JUMP JUMPDEST PUSH1 0x0 DUP5 DUP5 ADD MSTORE POP POP POP POP JUMP JUMPDEST PUSH1 0x0 PUSH1 0x1F NOT PUSH1 0x1F DUP4 ADD AND SWAP1 POP SWAP2 SWAP1 POP JUMP JUMPDEST PUSH1 0x0 PUSH2 0x940 DUP3 PUSH2 0x8DE JUMP JUMPDEST PUSH2 0x94A DUP2 DUP6 PUSH2 0x8E9 JUMP JUMPDEST SWAP4 POP PUSH2 0x95A DUP2 DUP6 PUSH1 0x20 DUP7 ADD PUSH2 0x8FA JUMP JUMPDEST PUSH2 0x963 DUP2 PUSH2 0x924 JUMP JUMPDEST DUP5 ADD SWAP2 POP POP SWAP3 SWAP2 POP POP JUMP JUMPDEST PUSH2 0x977 DUP2 PUSH2 0x83A JUMP JUMPDEST DUP3 MSTORE POP POP JUMP JUMPDEST PUSH1 0x0 PUSH1 0x60 DUP3 ADD SWAP1 POP PUSH2 0x992 PUSH1 0x0 DUP4 ADD DUP7 PUSH2 0x8CF JUMP JUMPDEST DUP2 DUP2 SUB PUSH1 0x20 DUP4 ADD MSTORE PUSH2 0x9A4 DUP2 DUP6 PUSH2 0x935 JUMP JUMPDEST SWAP1 POP PUSH2 0x9B3 PUSH1 0x40 DUP4 ADD DUP5 PUSH2 0x96E JUMP JUMPDEST SWAP5 SWAP4 POP POP POP POP JUMP JUMPDEST PUSH1 0x0 DUP2 MLOAD SWAP1 POP SWAP2 SWAP1 POP JUMP JUMPDEST PUSH1 0x0 DUP3 DUP3 MSTORE PUSH1 0x20 DUP3 ADD SWAP1 POP SWAP3 SWAP2 POP POP JUMP JUMPDEST PUSH1 0x0 DUP2 SWAP1 POP PUSH1 0x20 DUP3 ADD SWAP1 POP SWAP2 SWAP1 POP JUMP JUMPDEST PUSH1 0x0 DUP3 DUP3 MSTORE PUSH1 0x20 DUP3 ADD SWAP1 POP SWAP3 SWAP2 POP POP JUMP JUMPDEST PUSH1 0x0 PUSH2 0xA03 DUP3 PUSH2 0x8DE JUMP JUMPDEST PUSH2 0xA0D DUP2 DUP6 PUSH2 0x9E7 JUMP JUMPDEST SWAP4 POP PUSH2 0xA1D DUP2 DUP6 PUSH1 0x20 DUP7 ADD PUSH2 0x8FA JUMP JUMPDEST PUSH2 0xA26 DUP2 PUSH2 0x924 JUMP JUMPDEST DUP5 ADD SWAP2 POP POP SWAP3 SWAP2 POP POP JUMP JUMPDEST PUSH2 0xA3A DUP2 PUSH2 0x83A JUMP JUMPDEST DUP3 MSTORE POP POP JUMP JUMPDEST PUSH1 0x0 PUSH1 0x40 DUP4 ADD PUSH1 0x0 DUP4 ADD MLOAD DUP5 DUP3 SUB PUSH1 0x0 DUP7 ADD MSTORE PUSH2 0xA5D DUP3 DUP3 PUSH2 0x9F8 JUMP JUMPDEST SWAP2 POP POP PUSH1 0x20 DUP4 ADD MLOAD PUSH2 0xA72 PUSH1 0x20 DUP7 ADD DUP3 PUSH2 0xA31 JUMP JUMPDEST POP DUP1 SWAP2 POP POP SWAP3 SWAP2 POP POP JUMP JUMPDEST PUSH1 0x0 PUSH2 0xA89 DUP4 DUP4 PUSH2 0xA40 JUMP JUMPDEST SWAP1 POP SWAP3 SWAP2 POP POP JUMP JUMPDEST PUSH1 0x0 PUSH1 0x20 DUP3 ADD SWAP1 POP SWAP2 SWAP1 POP JUMP JUMPDEST PUSH1 0x0 PUSH2 0xAA9 DUP3 PUSH2 0x9BB JUMP JUMPDEST PUSH2 0xAB3 DUP2 DUP6 PUSH2 0x9C6 JUMP JUMPDEST SWAP4 POP DUP4 PUSH1 0x20 DUP3 MUL DUP6 ADD PUSH2 0xAC5 DUP6 PUSH2 0x9D7 JUMP JUMPDEST DUP1 PUSH1 0x0 JUMPDEST DUP6 DUP2 LT ISZERO PUSH2 0xB01 JUMPI DUP5 DUP5 SUB DUP10 MSTORE DUP2 MLOAD PUSH2 0xAE2 DUP6 DUP3 PUSH2 0xA7D JUMP JUMPDEST SWAP5 POP PUSH2 0xAED DUP4 PUSH2 0xA91 JUMP JUMPDEST SWAP3 POP PUSH1 0x20 DUP11 ADD SWAP10 POP POP PUSH1 0x1 DUP2 ADD SWAP1 POP PUSH2 0xAC9 JUMP JUMPDEST POP DUP3 SWAP8 POP DUP8 SWAP6 POP POP POP POP POP POP SWAP3 SWAP2 POP POP JUMP JUMPDEST PUSH1 0x0 PUSH1 0x20 DUP3 ADD SWAP1 POP DUP2 DUP2 SUB PUSH1 0x0 DUP4 ADD MSTORE PUSH2 0xB2D DUP2 DUP5 PUSH2 0xA9E JUMP JUMPDEST SWAP1 POP SWAP3 SWAP2 POP POP JUMP JUMPDEST PUSH1 0x0 DUP1 REVERT JUMPDEST PUSH1 0x0 DUP1 REVERT JUMPDEST PUSH32 0x4E487B7100000000000000000000000000000000000000000000000000000000 PUSH1 0x0 MSTORE PUSH1 0x41 PUSH1 0x4 MSTORE PUSH1 0x24 PUSH1 0x0 REVERT JUMPDEST PUSH2 0xB77 DUP3 PUSH2 0x924 JUMP JUMPDEST DUP2 ADD DUP2 DUP2 LT PUSH8 0xFFFFFFFFFFFFFFFF DUP3 GT OR ISZERO PUSH2 0xB96 JUMPI PUSH2 0xB95 PUSH2 0xB3F JUMP JUMPDEST JUMPDEST DUP1 PUSH1 0x40 MSTORE POP POP POP JUMP JUMPDEST PUSH1 0x0 PUSH2 0xBA9 PUSH2 0x826 JUMP JUMPDEST SWAP1 POP PUSH2 0xBB5 DUP3 DUP3 PUSH2 0xB6E JUMP JUMPDEST SWAP2 SWAP1 POP JUMP JUMPDEST PUSH1 0x0 PUSH8 0xFFFFFFFFFFFFFFFF DUP3 GT ISZERO PUSH2 0xBD5 JUMPI PUSH2 0xBD4 PUSH2 0xB3F JUMP JUMPDEST JUMPDEST PUSH2 0xBDE DUP3 PUSH2 0x924 JUMP JUMPDEST SWAP1 POP PUSH1 0x20 DUP2 ADD SWAP1 POP SWAP2 SWAP1 POP JUMP JUMPDEST DUP3 DUP2 DUP4 CALLDATACOPY PUSH1 0x0 DUP4 DUP4 ADD MSTORE POP POP POP JUMP JUMPDEST PUSH1 0x0 PUSH2 0xC0D PUSH2 0xC08 DUP5 PUSH2 0xBBA JUMP JUMPDEST PUSH2 0xB9F JUMP JUMPDEST SWAP1 POP DUP3 DUP2 MSTORE PUSH1 0x20 DUP2 ADD DUP5 DUP5 DUP5 ADD GT ISZERO PUSH2 0xC29 JUMPI PUSH2 0xC28 PUSH2 0xB3A JUMP JUMPDEST JUMPDEST PUSH2 0xC34 DUP5 DUP3 DUP6 PUSH2 0xBEB JUMP JUMPDEST POP SWAP4 SWAP3 POP POP POP JUMP JUMPDEST PUSH1 0x0 DUP3 PUSH1 0x1F DUP4 ADD SLT PUSH2 0xC51 JUMPI PUSH2 0xC50 PUSH2 0xB35 JUMP JUMPDEST JUMPDEST DUP2 CALLDATALOAD PUSH2 0xC61 DUP5 DUP3 PUSH1 0x20 DUP7 ADD PUSH2 0xBFA JUMP JUMPDEST SWAP2 POP POP SWAP3 SWAP2 POP POP JUMP JUMPDEST PUSH1 0x0 PUSH1 0x20 DUP3 DUP5 SUB SLT ISZERO PUSH2 0xC80 JUMPI PUSH2 0xC7F PUSH2 0x830 JUMP JUMPDEST JUMPDEST PUSH1 0x0 DUP3 ADD CALLDATALOAD PUSH8 0xFFFFFFFFFFFFFFFF DUP2 GT ISZERO PUSH2 0xC9E JUMPI PUSH2 0xC9D PUSH2 0x835 JUMP JUMPDEST JUMPDEST PUSH2 0xCAA DUP5 DUP3 DUP6 ADD PUSH2 0xC3C JUMP JUMPDEST SWAP2 POP POP SWAP3 SWAP2 POP POP JUMP JUMPDEST PUSH32 0x4E487B7100000000000000000000000000000000000000000000000000000000 PUSH1 0x0 MSTORE PUSH1 0x22 PUSH1 0x4 MSTORE PUSH1 0x24 PUSH1 0x0 REVERT JUMPDEST PUSH1 0x0 PUSH1 0x2 DUP3 DIV SWAP1 POP PUSH1 0x1 DUP3 AND DUP1 PUSH2 0xCFA JUMPI PUSH1 0x7F DUP3 AND SWAP2 POP JUMPDEST PUSH1 0x20 DUP3 LT DUP2 SUB PUSH2 0xD0D JUMPI PUSH2 0xD0C PUSH2 0xCB3 JUMP JUMPDEST JUMPDEST POP SWAP2 SWAP1 POP JUMP JUMPDEST PUSH32 0x4E487B7100000000000000000000000000000000000000000000000000000000 PUSH1 0x0 MSTORE PUSH1 0x32 PUSH1 0x4 MSTORE PUSH1 0x24 PUSH1 0x0 REVERT JUMPDEST PUSH32 0x4E487B7100000000000000000000000000000000000000000000000000000000 PUSH1 0x0 MSTORE PUSH1 0x11 PUSH1 0x4 MSTORE PUSH1 0x24 PUSH1 0x0 REVERT JUMPDEST PUSH1 0x0 PUSH2 0xD7C DUP3 PUSH2 0x83A JUMP JUMPDEST SWAP2 POP PUSH2 0xD87 DUP4 PUSH2 0x83A JUMP JUMPDEST SWAP3 POP DUP3 DUP3 SUB SWAP1 POP DUP2 DUP2 GT ISZERO PUSH2 0xD9F JUMPI PUSH2 0xD9E PUSH2 0xD42 JUMP JUMPDEST JUMPDEST SWAP3 SWAP2 POP POP JUMP JUMPDEST PUSH1 0x0 DUP2 SWAP1 POP SWAP3 SWAP2 POP POP JUMP JUMPDEST PUSH32 0x4D657373616765206973207374696C6C206C6F636B65642E2054696D65207265 PUSH1 0x0 DUP3 ADD MSTORE PUSH32 0x6D61696E696E673A200000000000000000000000000000000000000000000000 PUSH1 0x20 DUP3 ADD MSTORE POP JUMP JUMPDEST PUSH1 0x0 PUSH2 0xE0C PUSH1 0x29 DUP4 PUSH2 0xDA5 JUMP JUMPDEST SWAP2 POP PUSH2 0xE17 DUP3 PUSH2 0xDB0 JUMP JUMPDEST PUSH1 0x29 DUP3 ADD SWAP1 POP SWAP2 SWAP1 POP JUMP JUMPDEST PUSH1 0x0 PUSH2 0xE2D DUP3 PUSH2 0x8DE JUMP JUMPDEST PUSH2 0xE37 DUP2 DUP6 PUSH2 0xDA5 JUMP JUMPDEST SWAP4 POP PUSH2 0xE47 DUP2 DUP6 PUSH1 0x20 DUP7 ADD PUSH2 0x8FA JUMP JUMPDEST DUP1 DUP5 ADD SWAP2 POP POP SWAP3 SWAP2 POP POP JUMP JUMPDEST PUSH32 0x207365636F6E6473000000000000000000000000000000000000000000000000 PUSH1 0x0 DUP3 ADD MSTORE POP JUMP JUMPDEST PUSH1 0x0 PUSH2 0xE89 PUSH1 0x8 DUP4 PUSH2 0xDA5 JUMP JUMPDEST SWAP2 POP PUSH2 0xE94 DUP3 PUSH2 0xE53 JUMP JUMPDEST PUSH1 0x8 DUP3 ADD SWAP1 POP SWAP2 SWAP1 POP JUMP JUMPDEST PUSH1 0x0 PUSH2 0xEAA DUP3 PUSH2 0xDFF JUMP JUMPDEST SWAP2 POP PUSH2 0xEB6 DUP3 DUP5 PUSH2 0xE22 JUMP JUMPDEST SWAP2 POP PUSH2 0xEC1 DUP3 PUSH2 0xE7C JUMP JUMPDEST SWAP2 POP DUP2 SWAP1 POP SWAP3 SWAP2 POP POP JUMP JUMPDEST PUSH1 0x0 DUP2 SWAP1 POP DUP2 PUSH1 0x0 MSTORE PUSH1 0x20 PUSH1 0x0 KECCAK256 SWAP1 POP SWAP2 SWAP1 POP JUMP JUMPDEST PUSH1 0x0 PUSH1 0x20 PUSH1 0x1F DUP4 ADD DIV SWAP1 POP SWAP2 SWAP1 POP JUMP JUMPDEST PUSH1 0x0 DUP3 DUP3 SHL SWAP1 POP SWAP3 SWAP2 POP POP JUMP JUMPDEST PUSH1 0x0 PUSH1 0x8 DUP4 MUL PUSH2 0xF2E PUSH32 0xFFFFFFFFFFFFFFFFFFFFFFFFFFFFFFFFFFFFFFFFFFFFFFFFFFFFFFFFFFFFFFFF DUP3 PUSH2 0xEF1 JUMP JUMPDEST PUSH2 0xF38 DUP7 DUP4 PUSH2 0xEF1 JUMP JUMPDEST SWAP6 POP DUP1 NOT DUP5 AND SWAP4 POP DUP1 DUP7 AND DUP5 OR SWAP3 POP POP POP SWAP4 SWAP3 POP POP POP JUMP JUMPDEST PUSH1 0x0 DUP2 SWAP1 POP SWAP2 SWAP1 POP JUMP JUMPDEST PUSH1 0x0 PUSH2 0xF75 PUSH2 0xF70 PUSH2 0xF6B DUP5 PUSH2 0x83A JUMP JUMPDEST PUSH2 0xF50 JUMP JUMPDEST PUSH2 0x83A JUMP JUMPDEST SWAP1 POP SWAP2 SWAP1 POP JUMP JUMPDEST PUSH1 0x0 DUP2 SWAP1 POP SWAP2 SWAP1 POP JUMP JUMPDEST PUSH2 0xF8F DUP4 PUSH2 0xF5A JUMP JUMPDEST PUSH2 0xFA3 PUSH2 0xF9B DUP3 PUSH2 0xF7C JUMP JUMPDEST DUP5 DUP5 SLOAD PUSH2 0xEFE JUMP JUMPDEST DUP3 SSTORE POP POP POP POP JUMP JUMPDEST PUSH1 0x0 SWAP1 JUMP JUMPDEST PUSH2 0xFB8 PUSH2 0xFAB JUMP JUMPDEST PUSH2 0xFC3 DUP2 DUP5 DUP5 PUSH2 0xF86 JUMP JUMPDEST POP POP POP JUMP JUMPDEST JUMPDEST DUP2 DUP2 LT ISZERO PUSH2 0xFE7 JUMPI PUSH2 0xFDC PUSH1 0x0 DUP3 PUSH2 0xFB0 JUMP JUMPDEST PUSH1 0x1 DUP2 ADD SWAP1 POP PUSH2 0xFC9 JUMP JUMPDEST POP POP JUMP JUMPDEST PUSH1 0x1F DUP3 GT ISZERO PUSH2 0x102C JUMPI PUSH2 0xFFD DUP2 PUSH2 0xECC JUMP JUMPDEST PUSH2 0x1006 DUP5 PUSH2 0xEE1 JUMP JUMPDEST DUP2 ADD PUSH1 0x20 DUP6 LT ISZERO PUSH2 0x1015 JUMPI DUP2 SWAP1 POP JUMPDEST PUSH2 0x1029 PUSH2 0x1021 DUP6 PUSH2 0xEE1 JUMP JUMPDEST DUP4 ADD DUP3 PUSH2 0xFC8 JUMP JUMPDEST POP POP JUMPDEST POP POP POP JUMP JUMPDEST PUSH1 0x0 DUP3 DUP3 SHR SWAP1 POP SWAP3 SWAP2 POP POP JUMP JUMPDEST PUSH1 0x0 PUSH2 0x104F PUSH1 0x0 NOT DUP5 PUSH1 0x8 MUL PUSH2 0x1031 JUMP JUMPDEST NOT DUP1 DUP4 AND SWAP2 POP POP SWAP3 SWAP2 POP POP JUMP JUMPDEST PUSH1 0x0 PUSH2 0x1068 DUP4 DUP4 PUSH2 0x103E JUMP JUMPDEST SWAP2 POP DUP3 PUSH1 0x2 MUL DUP3 OR SWAP1 POP SWAP3 SWAP2 POP POP JUMP JUMPDEST PUSH2 0x1081 DUP3 PUSH2 0x8DE JUMP JUMPDEST PUSH8 0xFFFFFFFFFFFFFFFF DUP2 GT ISZERO PUSH2 0x109A JUMPI PUSH2 0x1099 PUSH2 0xB3F JUMP JUMPDEST JUMPDEST PUSH2 0x10A4 DUP3 SLOAD PUSH2 0xCE2 JUMP JUMPDEST PUSH2 0x10AF DUP3 DUP3 DUP6 PUSH2 0xFEB JUMP JUMPDEST PUSH1 0x0 PUSH1 0x20 SWAP1 POP PUSH1 0x1F DUP4 GT PUSH1 0x1 DUP2 EQ PUSH2 0x10E2 JUMPI PUSH1 0x0 DUP5 ISZERO PUSH2 0x10D0 JUMPI DUP3 DUP8 ADD MLOAD SWAP1 POP JUMPDEST PUSH2 0x10DA DUP6 DUP3 PUSH2 0x105C JUMP JUMPDEST DUP7 SSTORE POP PUSH2 0x1142 JUMP JUMPDEST PUSH1 0x1F NOT DUP5 AND PUSH2 0x10F0 DUP7 PUSH2 0xECC JUMP JUMPDEST PUSH1 0x0 JUMPDEST DUP3 DUP2 LT ISZERO PUSH2 0x1118 JUMPI DUP5 DUP10 ADD MLOAD DUP3 SSTORE PUSH1 0x1 DUP3 ADD SWAP2 POP PUSH1 0x20 DUP6 ADD SWAP5 POP PUSH1 0x20 DUP2 ADD SWAP1 POP PUSH2 0x10F3 JUMP JUMPDEST DUP7 DUP4 LT ISZERO PUSH2 0x1135 JUMPI DUP5 DUP10 ADD MLOAD PUSH2 0x1131 PUSH1 0x1F DUP10 AND DUP3 PUSH2 0x103E JUMP JUMPDEST DUP4 SSTORE POP JUMPDEST PUSH1 0x1 PUSH1 0x2 DUP9 MUL ADD DUP9 SSTORE POP POP POP JUMPDEST POP POP POP POP POP POP JUMP JUMPDEST PUSH1 0x0 PUSH2 0x1155 DUP3 PUSH2 0x83A JUMP JUMPDEST SWAP2 POP PUSH2 0x1160 DUP4 PUSH2 0x83A JUMP JUMPDEST SWAP3 POP DUP3 DUP3 ADD SWAP1 POP DUP1 DUP3 GT ISZERO PUSH2 0x1178 JUMPI PUSH2 0x1177 PUSH2 0xD42 JUMP JUMPDEST JUMPDEST SWAP3 SWAP2 POP POP JUMP JUMPDEST PUSH1 0x0 PUSH2 0x1189 DUP3 PUSH2 0x83A JUMP JUMPDEST SWAP2 POP PUSH32 0xFFFFFFFFFFFFFFFFFFFFFFFFFFFFFFFFFFFFFFFFFFFFFFFFFFFFFFFFFFFFFFFF DUP3 SUB PUSH2 0x11BB JUMPI PUSH2 0x11BA PUSH2 0xD42 JUMP JUMPDEST JUMPDEST PUSH1 0x1 DUP3 ADD SWAP1 POP SWAP2 SWAP1 POP JUMP JUMPDEST PUSH32 0x4E487B7100000000000000000000000000000000000000000000000000000000 PUSH1 0x0 MSTORE PUSH1 0x12 PUSH1 0x4 MSTORE PUSH1 0x24 PUSH1 0x0 REVERT JUMPDEST PUSH1 0x0 PUSH2 0x1200 DUP3 PUSH2 0x83A JUMP JUMPDEST SWAP2 POP PUSH2 0x120B DUP4 PUSH2 0x83A JUMP JUMPDEST SWAP3 POP DUP3 PUSH2 0x121B JUMPI PUSH2 0x121A PUSH2 0x11C6 JUMP JUMPDEST JUMPDEST DUP3 DUP3 DIV SWAP1 POP SWAP3 SWAP2 POP POP JUMP JUMPDEST PUSH1 0x0 PUSH2 0x1231 DUP3 PUSH2 0x83A JUMP JUMPDEST SWAP2 POP PUSH2 0x123C DUP4 PUSH2 0x83A JUMP JUMPDEST SWAP3 POP DUP3 DUP3 MUL PUSH2 0x124A DUP2 PUSH2 0x83A JUMP JUMPDEST SWAP2 POP DUP3 DUP3 DIV DUP5 EQ DUP4 ISZERO OR PUSH2 0x1261 JUMPI PUSH2 0x1260 PUSH2 0xD42 JUMP JUMPDEST JUMPDEST POP SWAP3 SWAP2 POP POP JUMP JUMPDEST PUSH1 0x0 PUSH1 0xFF DUP3 AND SWAP1 POP SWAP2 SWAP1 POP JUMP JUMPDEST PUSH1 0x0 PUSH2 0x1280 DUP3 PUSH2 0x1268 JUMP JUMPDEST SWAP2 POP PUSH2 0x128B DUP4 PUSH2 0x1268 JUMP JUMPDEST SWAP3 POP DUP3 DUP3 ADD SWAP1 POP PUSH1 0xFF DUP2 GT ISZERO PUSH2 0x12A4 JUMPI PUSH2 0x12A3 PUSH2 0xD42 JUMP JUMPDEST JUMPDEST SWAP3 SWAP2 POP POP JUMP INVALID LOG2 PUSH5 0x6970667358 0x22 SLT KECCAK256 TLOAD DUP10 MSTORE 0xC CALLVALUE 0xE1 SGT 0xE7 CALLER PUSH21 0x5E3BAB3A13A4B54A8A2DDC69A9FE7F5247EA9F0310 LOG4 PUSH5 0x736F6C6343 STOP ADDMOD SHL STOP CALLER "
        },
        "methodIdentifiers": {
          "messages(uint256)": "0d80fefd",
          "revealMessage()": "1c3b7bc4",
          "setMessage(string)": "368b8772"
        }
      }
    }
  }
}