{
  "contracts/TimelockTest.sol": {
    "TimelockTest": {
      "abi": [
        {
          "inputs": [
            {
              "internalType": "uint256",
              "name": "",
              "type": "uint256"
            }
          ],
          "name": "messages",
          "outputs": [
            {
              "internalType": "address",
              "name": "user",
              "type": "address"
            },
            {
              "internalType": "string",
              "name": "text",
              "type": "string"
            },
            {
              "internalType": "uint256",
              "name": "unlockTime",
              "type": "uint256"
            }
          ],
          "stateMutability": "view",
          "type": "function"
        },
        {
          "inputs": [],
          "name": "revealMessage",
          "outputs": [
            {
              "components": [
                {
                  "internalType": "string",
                  "name": "text",
                  "type": "string"
                },
                {
                  "internalType": "uint256",
                  "name": "unlockTime",
                  "type": "uint256"
                }
              ],
              "internalType": "struct Timelock.RevealedMessage[]",
              "name": "",
              "type": "tuple[]"
            }
          ],
          "stateMutability": "view",
          "type": "function"
        },
        {
          "inputs": [
            {
              "internalType": "string",
              "name": "_message",
              "type": "string"
            }
          ],
          "name": "setMessage",
          "outputs": [],
          "stateMutability": "nonpayable",
          "type": "function"
        },
        {
          "inputs": [
            {
              "internalType": "uint256",
              "name": "_i",
              "type": "uint256"
            }
          ],
          "name": "testConvertToString",
          "outputs": [
            {
              "internalType": "string",
              "name": "",
              "type": "string"
            }
          ],
          "stateMutability": "pure",
          "type": "function"
        }
      ],
      "evm": {
        "bytecode": {
          "linkReferences": {},
          "object": "6080604052348015600f57600080fd5b5061134f8061001f6000396000f3fe608060405234801561001057600080fd5b506004361061004c5760003560e01c80630d80fefd146100515780631c3b7bc414610083578063368b8772146100a1578063f195ff23146100bd575b600080fd5b61006b600480360381019061006691906108bd565b6100ed565b60405161007a939291906109ca565b60405180910390f35b61008b6101cf565b6040516100989190610b60565b60405180910390f35b6100bb60048036038101906100b69190610cb7565b61043f565b005b6100d760048036038101906100d291906108bd565b6106bf565b6040516100e49190610d00565b60405180910390f35b600081815481106100fd57600080fd5b90600052602060002090600302016000915090508060000160009054906101000a900473ffffffffffffffffffffffffffffffffffffffff169080600101805461014690610d51565b80601f016020809104026020016040519081016040528092919081815260200182805461017290610d51565b80156101bf5780601f10610194576101008083540402835291602001916101bf565b820191906000526020600020905b8154815290600101906020018083116101a257829003601f168201915b5050505050908060020154905083565b60606000808054905067ffffffffffffffff8111156101f1576101f0610b8c565b5b60405190808252806020026020018201604052801561022a57816020015b610217610859565b81526020019060019003908161020f5790505b50905060005b600080549050811015610437576000818154811061025157610250610d82565b5b906000526020600020906003020160020154421015610324576000426000838154811061028157610280610d82565b5b90600052602060002090600302016002015461029d9190610de0565b905060405180604001604052806102b3836106d1565b6040516020016102c39190610f0e565b6040516020818303038152906040528152602001600084815481106102eb576102ea610d82565b5b90600052602060002090600302016002015481525083838151811061031357610312610d82565b5b60200260200101819052505061042a565b60405180604001604052806000838154811061034357610342610d82565b5b9060005260206000209060030201600101805461035f90610d51565b80601f016020809104026020016040519081016040528092919081815260200182805461038b90610d51565b80156103d85780601f106103ad576101008083540402835291602001916103d8565b820191906000526020600020905b8154815290600101906020018083116103bb57829003601f168201915b50505050508152602001600083815481106103f6576103f5610d82565b5b90600052602060002090600302016002015481525082828151811061041e5761041d610d82565b5b60200260200101819052505b8080600101915050610230565b508091505090565b6000805b6000805490508110156105e3573373ffffffffffffffffffffffffffffffffffffffff166000828154811061047b5761047a610d82565b5b906000526020600020906003020160000160009054906101000a900473ffffffffffffffffffffffffffffffffffffffff1673ffffffffffffffffffffffffffffffffffffffff16036105d657600081815481106104dc576104db610d82565b5b90600052602060002090600302016002015442101561056357826000828154811061050a57610509610d82565b5b9060005260206000209060030201600101908161052791906110e7565b50600f4261053591906111b9565b6000828154811061054957610548610d82565b5b9060005260206000209060030201600201819055506105cd565b826000828154811061057857610577610d82565b5b9060005260206000209060030201600101908161059591906110e7565b50600f426105a391906111b9565b600082815481106105b7576105b6610d82565b5b9060005260206000209060030201600201819055505b600191506105e3565b8080600101915050610443565b50806106bb57600060405180606001604052803373ffffffffffffffffffffffffffffffffffffffff168152602001848152602001600f4261062591906111b9565b815250908060018154018082558091505060019003906000526020600020906003020160009091909190915060008201518160000160006101000a81548173ffffffffffffffffffffffffffffffffffffffff021916908373ffffffffffffffffffffffffffffffffffffffff16021790555060208201518160010190816106ad91906110e7565b506040820151816002015550505b5050565b60606106ca826106d1565b9050919050565b606060008203610718576040518060400160405280600181526020017f30000000000000000000000000000000000000000000000000000000000000008152509050610854565b600082905060005b6000821461074a578080610733906111ed565b915050600a826107439190611264565b9150610720565b60008167ffffffffffffffff81111561076657610765610b8c565b5b6040519080825280601f01601f1916602001820160405280156107985781602001600182028036833780820191505090505b50905060008290505b6000861461084c576001816107b69190610de0565b90506000600a80886107c89190611264565b6107d29190611295565b876107dd9190610de0565b60306107e991906112e4565b905060008160f81b90508084848151811061080757610806610d82565b5b60200101907effffffffffffffffffffffffffffffffffffffffffffffffffffffffffffff1916908160001a905350600a886108439190611264565b975050506107a1565b819450505050505b919050565b604051806040016040528060608152602001600081525090565b6000604051905090565b600080fd5b600080fd5b6000819050919050565b61089a81610887565b81146108a557600080fd5b50565b6000813590506108b781610891565b92915050565b6000602082840312156108d3576108d261087d565b5b60006108e1848285016108a8565b91505092915050565b600073ffffffffffffffffffffffffffffffffffffffff82169050919050565b6000610915826108ea565b9050919050565b6109258161090a565b82525050565b600081519050919050565b600082825260208201905092915050565b60005b8381101561096557808201518184015260208101905061094a565b60008484015250505050565b6000601f19601f8301169050919050565b600061098d8261092b565b6109978185610936565b93506109a7818560208601610947565b6109b081610971565b840191505092915050565b6109c481610887565b82525050565b60006060820190506109df600083018661091c565b81810360208301526109f18185610982565b9050610a0060408301846109bb565b949350505050565b600081519050919050565b600082825260208201905092915050565b6000819050602082019050919050565b600082825260208201905092915050565b6000610a508261092b565b610a5a8185610a34565b9350610a6a818560208601610947565b610a7381610971565b840191505092915050565b610a8781610887565b82525050565b60006040830160008301518482036000860152610aaa8282610a45565b9150506020830151610abf6020860182610a7e565b508091505092915050565b6000610ad68383610a8d565b905092915050565b6000602082019050919050565b6000610af682610a08565b610b008185610a13565b935083602082028501610b1285610a24565b8060005b85811015610b4e5784840389528151610b2f8582610aca565b9450610b3a83610ade565b925060208a01995050600181019050610b16565b50829750879550505050505092915050565b60006020820190508181036000830152610b7a8184610aeb565b905092915050565b600080fd5b600080fd5b7f4e487b7100000000000000000000000000000000000000000000000000000000600052604160045260246000fd5b610bc482610971565b810181811067ffffffffffffffff82111715610be357610be2610b8c565b5b80604052505050565b6000610bf6610873565b9050610c028282610bbb565b919050565b600067ffffffffffffffff821115610c2257610c21610b8c565b5b610c2b82610971565b9050602081019050919050565b82818337600083830152505050565b6000610c5a610c5584610c07565b610bec565b905082815260208101848484011115610c7657610c75610b87565b5b610c81848285610c38565b509392505050565b600082601f830112610c9e57610c9d610b82565b5b8135610cae848260208601610c47565b91505092915050565b600060208284031215610ccd57610ccc61087d565b5b600082013567ffffffffffffffff811115610ceb57610cea610882565b5b610cf784828501610c89565b91505092915050565b60006020820190508181036000830152610d1a8184610982565b905092915050565b7f4e487b7100000000000000000000000000000000000000000000000000000000600052602260045260246000fd5b60006002820490506001821680610d6957607f821691505b602082108103610d7c57610d7b610d22565b5b50919050565b7f4e487b7100000000000000000000000000000000000000000000000000000000600052603260045260246000fd5b7f4e487b7100000000000000000000000000000000000000000000000000000000600052601160045260246000fd5b6000610deb82610887565b9150610df683610887565b9250828203905081811115610e0e57610e0d610db1565b5b92915050565b600081905092915050565b7f4d657373616765206973207374696c6c206c6f636b65642e2054696d6520726560008201527f6d61696e696e673a200000000000000000000000000000000000000000000000602082015250565b6000610e7b602983610e14565b9150610e8682610e1f565b602982019050919050565b6000610e9c8261092b565b610ea68185610e14565b9350610eb6818560208601610947565b80840191505092915050565b7f207365636f6e6473000000000000000000000000000000000000000000000000600082015250565b6000610ef8600883610e14565b9150610f0382610ec2565b600882019050919050565b6000610f1982610e6e565b9150610f258284610e91565b9150610f3082610eeb565b915081905092915050565b60008190508160005260206000209050919050565b60006020601f8301049050919050565b600082821b905092915050565b600060088302610f9d7fffffffffffffffffffffffffffffffffffffffffffffffffffffffffffffffff82610f60565b610fa78683610f60565b95508019841693508086168417925050509392505050565b6000819050919050565b6000610fe4610fdf610fda84610887565b610fbf565b610887565b9050919050565b6000819050919050565b610ffe83610fc9565b61101261100a82610feb565b848454610f6d565b825550505050565b600090565b61102761101a565b611032818484610ff5565b505050565b5b818110156110565761104b60008261101f565b600181019050611038565b5050565b601f82111561109b5761106c81610f3b565b61107584610f50565b81016020851015611084578190505b61109861109085610f50565b830182611037565b50505b505050565b600082821c905092915050565b60006110be600019846008026110a0565b1980831691505092915050565b60006110d783836110ad565b9150826002028217905092915050565b6110f08261092b565b67ffffffffffffffff81111561110957611108610b8c565b5b6111138254610d51565b61111e82828561105a565b600060209050601f831160018114611151576000841561113f578287015190505b61114985826110cb565b8655506111b1565b601f19841661115f86610f3b565b60005b8281101561118757848901518255600182019150602085019450602081019050611162565b868310156111a457848901516111a0601f8916826110ad565b8355505b6001600288020188555050505b505050505050565b60006111c482610887565b91506111cf83610887565b92508282019050808211156111e7576111e6610db1565b5b92915050565b60006111f882610887565b91507fffffffffffffffffffffffffffffffffffffffffffffffffffffffffffffffff820361122a57611229610db1565b5b600182019050919050565b7f4e487b7100000000000000000000000000000000000000000000000000000000600052601260045260246000fd5b600061126f82610887565b915061127a83610887565b92508261128a57611289611235565b5b828204905092915050565b60006112a082610887565b91506112ab83610887565b92508282026112b981610887565b915082820484148315176112d0576112cf610db1565b5b5092915050565b600060ff82169050919050565b60006112ef826112d7565b91506112fa836112d7565b9250828201905060ff81111561131357611312610db1565b5b9291505056fea26469706673582212209a8a7796ae9fd77f61f06a06cdec838f291eb526acf0b5c2a3d99a06965b3b5564736f6c634300081b0033",
          "opcodes": "PUSH1 0x80 PUSH1 0x40 MSTORE CALLVALUE DUP1 ISZERO PUSH1 0xF JUMPI PUSH1 0x0 DUP1 REVERT JUMPDEST POP PUSH2 0x134F DUP1 PUSH2 0x1F PUSH1 0x0 CODECOPY PUSH1 0x0 RETURN INVALID PUSH1 0x80 PUSH1 0x40 MSTORE CALLVALUE DUP1 ISZERO PUSH2 0x10 JUMPI PUSH1 0x0 DUP1 REVERT JUMPDEST POP PUSH1 0x4 CALLDATASIZE LT PUSH2 0x4C JUMPI PUSH1 0x0 CALLDATALOAD PUSH1 0xE0 SHR DUP1 PUSH4 0xD80FEFD EQ PUSH2 0x51 JUMPI DUP1 PUSH4 0x1C3B7BC4 EQ PUSH2 0x83 JUMPI DUP1 PUSH4 0x368B8772 EQ PUSH2 0xA1 JUMPI DUP1 PUSH4 0xF195FF23 EQ PUSH2 0xBD JUMPI JUMPDEST PUSH1 0x0 DUP1 REVERT JUMPDEST PUSH2 0x6B PUSH1 0x4 DUP1 CALLDATASIZE SUB DUP2 ADD SWAP1 PUSH2 0x66 SWAP2 SWAP1 PUSH2 0x8BD JUMP JUMPDEST PUSH2 0xED JUMP JUMPDEST PUSH1 0x40 MLOAD PUSH2 0x7A SWAP4 SWAP3 SWAP2 SWAP1 PUSH2 0x9CA JUMP JUMPDEST PUSH1 0x40 MLOAD DUP1 SWAP2 SUB SWAP1 RETURN JUMPDEST PUSH2 0x8B PUSH2 0x1CF JUMP JUMPDEST PUSH1 0x40 MLOAD PUSH2 0x98 SWAP2 SWAP1 PUSH2 0xB60 JUMP JUMPDEST PUSH1 0x40 MLOAD DUP1 SWAP2 SUB SWAP1 RETURN JUMPDEST PUSH2 0xBB PUSH1 0x4 DUP1 CALLDATASIZE SUB DUP2 ADD SWAP1 PUSH2 0xB6 SWAP2 SWAP1 PUSH2 0xCB7 JUMP JUMPDEST PUSH2 0x43F JUMP JUMPDEST STOP JUMPDEST PUSH2 0xD7 PUSH1 0x4 DUP1 CALLDATASIZE SUB DUP2 ADD SWAP1 PUSH2 0xD2 SWAP2 SWAP1 PUSH2 0x8BD JUMP JUMPDEST PUSH2 0x6BF JUMP JUMPDEST PUSH1 0x40 MLOAD PUSH2 0xE4 SWAP2 SWAP1 PUSH2 0xD00 JUMP JUMPDEST PUSH1 0x40 MLOAD DUP1 SWAP2 SUB SWAP1 RETURN JUMPDEST PUSH1 0x0 DUP2 DUP2 SLOAD DUP2 LT PUSH2 0xFD JUMPI PUSH1 0x0 DUP1 REVERT JUMPDEST SWAP1 PUSH1 0x0 MSTORE PUSH1 0x20 PUSH1 0x0 KECCAK256 SWAP1 PUSH1 0x3 MUL ADD PUSH1 0x0 SWAP2 POP SWAP1 POP DUP1 PUSH1 0x0 ADD PUSH1 0x0 SWAP1 SLOAD SWAP1 PUSH2 0x100 EXP SWAP1 DIV PUSH20 0xFFFFFFFFFFFFFFFFFFFFFFFFFFFFFFFFFFFFFFFF AND SWAP1 DUP1 PUSH1 0x1 ADD DUP1 SLOAD PUSH2 0x146 SWAP1 PUSH2 0xD51 JUMP JUMPDEST DUP1 PUSH1 0x1F ADD PUSH1 0x20 DUP1 SWAP2 DIV MUL PUSH1 0x20 ADD PUSH1 0x40 MLOAD SWAP1 DUP2 ADD PUSH1 0x40 MSTORE DUP1 SWAP3 SWAP2 SWAP1 DUP2 DUP2 MSTORE PUSH1 0x20 ADD DUP3 DUP1 SLOAD PUSH2 0x172 SWAP1 PUSH2 0xD51 JUMP JUMPDEST DUP1 ISZERO PUSH2 0x1BF JUMPI DUP1 PUSH1 0x1F LT PUSH2 0x194 JUMPI PUSH2 0x100 DUP1 DUP4 SLOAD DIV MUL DUP4 MSTORE SWAP2 PUSH1 0x20 ADD SWAP2 PUSH2 0x1BF JUMP JUMPDEST DUP3 ADD SWAP2 SWAP1 PUSH1 0x0 MSTORE PUSH1 0x20 PUSH1 0x0 KECCAK256 SWAP1 JUMPDEST DUP2 SLOAD DUP2 MSTORE SWAP1 PUSH1 0x1 ADD SWAP1 PUSH1 0x20 ADD DUP1 DUP4 GT PUSH2 0x1A2 JUMPI DUP3 SWAP1 SUB PUSH1 0x1F AND DUP3 ADD SWAP2 JUMPDEST POP POP POP POP POP SWAP1 DUP1 PUSH1 0x2 ADD SLOAD SWAP1 POP DUP4 JUMP JUMPDEST PUSH1 0x60 PUSH1 0x0 DUP1 DUP1 SLOAD SWAP1 POP PUSH8 0xFFFFFFFFFFFFFFFF DUP2 GT ISZERO PUSH2 0x1F1 JUMPI PUSH2 0x1F0 PUSH2 0xB8C JUMP JUMPDEST JUMPDEST PUSH1 0x40 MLOAD SWAP1 DUP1 DUP3 MSTORE DUP1 PUSH1 0x20 MUL PUSH1 0x20 ADD DUP3 ADD PUSH1 0x40 MSTORE DUP1 ISZERO PUSH2 0x22A JUMPI DUP2 PUSH1 0x20 ADD JUMPDEST PUSH2 0x217 PUSH2 0x859 JUMP JUMPDEST DUP2 MSTORE PUSH1 0x20 ADD SWAP1 PUSH1 0x1 SWAP1 SUB SWAP1 DUP2 PUSH2 0x20F JUMPI SWAP1 POP JUMPDEST POP SWAP1 POP PUSH1 0x0 JUMPDEST PUSH1 0x0 DUP1 SLOAD SWAP1 POP DUP2 LT ISZERO PUSH2 0x437 JUMPI PUSH1 0x0 DUP2 DUP2 SLOAD DUP2 LT PUSH2 0x251 JUMPI PUSH2 0x250 PUSH2 0xD82 JUMP JUMPDEST JUMPDEST SWAP1 PUSH1 0x0 MSTORE PUSH1 0x20 PUSH1 0x0 KECCAK256 SWAP1 PUSH1 0x3 MUL ADD PUSH1 0x2 ADD SLOAD TIMESTAMP LT ISZERO PUSH2 0x324 JUMPI PUSH1 0x0 TIMESTAMP PUSH1 0x0 DUP4 DUP2 SLOAD DUP2 LT PUSH2 0x281 JUMPI PUSH2 0x280 PUSH2 0xD82 JUMP JUMPDEST JUMPDEST SWAP1 PUSH1 0x0 MSTORE PUSH1 0x20 PUSH1 0x0 KECCAK256 SWAP1 PUSH1 0x3 MUL ADD PUSH1 0x2 ADD SLOAD PUSH2 0x29D SWAP2 SWAP1 PUSH2 0xDE0 JUMP JUMPDEST SWAP1 POP PUSH1 0x40 MLOAD DUP1 PUSH1 0x40 ADD PUSH1 0x40 MSTORE DUP1 PUSH2 0x2B3 DUP4 PUSH2 0x6D1 JUMP JUMPDEST PUSH1 0x40 MLOAD PUSH1 0x20 ADD PUSH2 0x2C3 SWAP2 SWAP1 PUSH2 0xF0E JUMP JUMPDEST PUSH1 0x40 MLOAD PUSH1 0x20 DUP2 DUP4 SUB SUB DUP2 MSTORE SWAP1 PUSH1 0x40 MSTORE DUP2 MSTORE PUSH1 0x20 ADD PUSH1 0x0 DUP5 DUP2 SLOAD DUP2 LT PUSH2 0x2EB JUMPI PUSH2 0x2EA PUSH2 0xD82 JUMP JUMPDEST JUMPDEST SWAP1 PUSH1 0x0 MSTORE PUSH1 0x20 PUSH1 0x0 KECCAK256 SWAP1 PUSH1 0x3 MUL ADD PUSH1 0x2 ADD SLOAD DUP2 MSTORE POP DUP4 DUP4 DUP2 MLOAD DUP2 LT PUSH2 0x313 JUMPI PUSH2 0x312 PUSH2 0xD82 JUMP JUMPDEST JUMPDEST PUSH1 0x20 MUL PUSH1 0x20 ADD ADD DUP2 SWAP1 MSTORE POP POP PUSH2 0x42A JUMP JUMPDEST PUSH1 0x40 MLOAD DUP1 PUSH1 0x40 ADD PUSH1 0x40 MSTORE DUP1 PUSH1 0x0 DUP4 DUP2 SLOAD DUP2 LT PUSH2 0x343 JUMPI PUSH2 0x342 PUSH2 0xD82 JUMP JUMPDEST JUMPDEST SWAP1 PUSH1 0x0 MSTORE PUSH1 0x20 PUSH1 0x0 KECCAK256 SWAP1 PUSH1 0x3 MUL ADD PUSH1 0x1 ADD DUP1 SLOAD PUSH2 0x35F SWAP1 PUSH2 0xD51 JUMP JUMPDEST DUP1 PUSH1 0x1F ADD PUSH1 0x20 DUP1 SWAP2 DIV MUL PUSH1 0x20 ADD PUSH1 0x40 MLOAD SWAP1 DUP2 ADD PUSH1 0x40 MSTORE DUP1 SWAP3 SWAP2 SWAP1 DUP2 DUP2 MSTORE PUSH1 0x20 ADD DUP3 DUP1 SLOAD PUSH2 0x38B SWAP1 PUSH2 0xD51 JUMP JUMPDEST DUP1 ISZERO PUSH2 0x3D8 JUMPI DUP1 PUSH1 0x1F LT PUSH2 0x3AD JUMPI PUSH2 0x100 DUP1 DUP4 SLOAD DIV MUL DUP4 MSTORE SWAP2 PUSH1 0x20 ADD SWAP2 PUSH2 0x3D8 JUMP JUMPDEST DUP3 ADD SWAP2 SWAP1 PUSH1 0x0 MSTORE PUSH1 0x20 PUSH1 0x0 KECCAK256 SWAP1 JUMPDEST DUP2 SLOAD DUP2 MSTORE SWAP1 PUSH1 0x1 ADD SWAP1 PUSH1 0x20 ADD DUP1 DUP4 GT PUSH2 0x3BB JUMPI DUP3 SWAP1 SUB PUSH1 0x1F AND DUP3 ADD SWAP2 JUMPDEST POP POP POP POP POP DUP2 MSTORE PUSH1 0x20 ADD PUSH1 0x0 DUP4 DUP2 SLOAD DUP2 LT PUSH2 0x3F6 JUMPI PUSH2 0x3F5 PUSH2 0xD82 JUMP JUMPDEST JUMPDEST SWAP1 PUSH1 0x0 MSTORE PUSH1 0x20 PUSH1 0x0 KECCAK256 SWAP1 PUSH1 0x3 MUL ADD PUSH1 0x2 ADD SLOAD DUP2 MSTORE POP DUP3 DUP3 DUP2 MLOAD DUP2 LT PUSH2 0x41E JUMPI PUSH2 0x41D PUSH2 0xD82 JUMP JUMPDEST JUMPDEST PUSH1 0x20 MUL PUSH1 0x20 ADD ADD DUP2 SWAP1 MSTORE POP JUMPDEST DUP1 DUP1 PUSH1 0x1 ADD SWAP2 POP POP PUSH2 0x230 JUMP JUMPDEST POP DUP1 SWAP2 POP POP SWAP1 JUMP JUMPDEST PUSH1 0x0 DUP1 JUMPDEST PUSH1 0x0 DUP1 SLOAD SWAP1 POP DUP2 LT ISZERO PUSH2 0x5E3 JUMPI CALLER PUSH20 0xFFFFFFFFFFFFFFFFFFFFFFFFFFFFFFFFFFFFFFFF AND PUSH1 0x0 DUP3 DUP2 SLOAD DUP2 LT PUSH2 0x47B JUMPI PUSH2 0x47A PUSH2 0xD82 JUMP JUMPDEST JUMPDEST SWAP1 PUSH1 0x0 MSTORE PUSH1 0x20 PUSH1 0x0 KECCAK256 SWAP1 PUSH1 0x3 MUL ADD PUSH1 0x0 ADD PUSH1 0x0 SWAP1 SLOAD SWAP1 PUSH2 0x100 EXP SWAP1 DIV PUSH20 0xFFFFFFFFFFFFFFFFFFFFFFFFFFFFFFFFFFFFFFFF AND PUSH20 0xFFFFFFFFFFFFFFFFFFFFFFFFFFFFFFFFFFFFFFFF AND SUB PUSH2 0x5D6 JUMPI PUSH1 0x0 DUP2 DUP2 SLOAD DUP2 LT PUSH2 0x4DC JUMPI PUSH2 0x4DB PUSH2 0xD82 JUMP JUMPDEST JUMPDEST SWAP1 PUSH1 0x0 MSTORE PUSH1 0x20 PUSH1 0x0 KECCAK256 SWAP1 PUSH1 0x3 MUL ADD PUSH1 0x2 ADD SLOAD TIMESTAMP LT ISZERO PUSH2 0x563 JUMPI DUP3 PUSH1 0x0 DUP3 DUP2 SLOAD DUP2 LT PUSH2 0x50A JUMPI PUSH2 0x509 PUSH2 0xD82 JUMP JUMPDEST JUMPDEST SWAP1 PUSH1 0x0 MSTORE PUSH1 0x20 PUSH1 0x0 KECCAK256 SWAP1 PUSH1 0x3 MUL ADD PUSH1 0x1 ADD SWAP1 DUP2 PUSH2 0x527 SWAP2 SWAP1 PUSH2 0x10E7 JUMP JUMPDEST POP PUSH1 0xF TIMESTAMP PUSH2 0x535 SWAP2 SWAP1 PUSH2 0x11B9 JUMP JUMPDEST PUSH1 0x0 DUP3 DUP2 SLOAD DUP2 LT PUSH2 0x549 JUMPI PUSH2 0x548 PUSH2 0xD82 JUMP JUMPDEST JUMPDEST SWAP1 PUSH1 0x0 MSTORE PUSH1 0x20 PUSH1 0x0 KECCAK256 SWAP1 PUSH1 0x3 MUL ADD PUSH1 0x2 ADD DUP2 SWAP1 SSTORE POP PUSH2 0x5CD JUMP JUMPDEST DUP3 PUSH1 0x0 DUP3 DUP2 SLOAD DUP2 LT PUSH2 0x578 JUMPI PUSH2 0x577 PUSH2 0xD82 JUMP JUMPDEST JUMPDEST SWAP1 PUSH1 0x0 MSTORE PUSH1 0x20 PUSH1 0x0 KECCAK256 SWAP1 PUSH1 0x3 MUL ADD PUSH1 0x1 ADD SWAP1 DUP2 PUSH2 0x595 SWAP2 SWAP1 PUSH2 0x10E7 JUMP JUMPDEST POP PUSH1 0xF TIMESTAMP PUSH2 0x5A3 SWAP2 SWAP1 PUSH2 0x11B9 JUMP JUMPDEST PUSH1 0x0 DUP3 DUP2 SLOAD DUP2 LT PUSH2 0x5B7 JUMPI PUSH2 0x5B6 PUSH2 0xD82 JUMP JUMPDEST JUMPDEST SWAP1 PUSH1 0x0 MSTORE PUSH1 0x20 PUSH1 0x0 KECCAK256 SWAP1 PUSH1 0x3 MUL ADD PUSH1 0x2 ADD DUP2 SWAP1 SSTORE POP JUMPDEST PUSH1 0x1 SWAP2 POP PUSH2 0x5E3 JUMP JUMPDEST DUP1 DUP1 PUSH1 0x1 ADD SWAP2 POP POP PUSH2 0x443 JUMP JUMPDEST POP DUP1 PUSH2 0x6BB JUMPI PUSH1 0x0 PUSH1 0x40 MLOAD DUP1 PUSH1 0x60 ADD PUSH1 0x40 MSTORE DUP1 CALLER PUSH20 0xFFFFFFFFFFFFFFFFFFFFFFFFFFFFFFFFFFFFFFFF AND DUP2 MSTORE PUSH1 0x20 ADD DUP5 DUP2 MSTORE PUSH1 0x20 ADD PUSH1 0xF TIMESTAMP PUSH2 0x625 SWAP2 SWAP1 PUSH2 0x11B9 JUMP JUMPDEST DUP2 MSTORE POP SWAP1 DUP1 PUSH1 0x1 DUP2 SLOAD ADD DUP1 DUP3 SSTORE DUP1 SWAP2 POP POP PUSH1 0x1 SWAP1 SUB SWAP1 PUSH1 0x0 MSTORE PUSH1 0x20 PUSH1 0x0 KECCAK256 SWAP1 PUSH1 0x3 MUL ADD PUSH1 0x0 SWAP1 SWAP2 SWAP1 SWAP2 SWAP1 SWAP2 POP PUSH1 0x0 DUP3 ADD MLOAD DUP2 PUSH1 0x0 ADD PUSH1 0x0 PUSH2 0x100 EXP DUP2 SLOAD DUP2 PUSH20 0xFFFFFFFFFFFFFFFFFFFFFFFFFFFFFFFFFFFFFFFF MUL NOT AND SWAP1 DUP4 PUSH20 0xFFFFFFFFFFFFFFFFFFFFFFFFFFFFFFFFFFFFFFFF AND MUL OR SWAP1 SSTORE POP PUSH1 0x20 DUP3 ADD MLOAD DUP2 PUSH1 0x1 ADD SWAP1 DUP2 PUSH2 0x6AD SWAP2 SWAP1 PUSH2 0x10E7 JUMP JUMPDEST POP PUSH1 0x40 DUP3 ADD MLOAD DUP2 PUSH1 0x2 ADD SSTORE POP POP JUMPDEST POP POP JUMP JUMPDEST PUSH1 0x60 PUSH2 0x6CA DUP3 PUSH2 0x6D1 JUMP JUMPDEST SWAP1 POP SWAP2 SWAP1 POP JUMP JUMPDEST PUSH1 0x60 PUSH1 0x0 DUP3 SUB PUSH2 0x718 JUMPI PUSH1 0x40 MLOAD DUP1 PUSH1 0x40 ADD PUSH1 0x40 MSTORE DUP1 PUSH1 0x1 DUP2 MSTORE PUSH1 0x20 ADD PUSH32 0x3000000000000000000000000000000000000000000000000000000000000000 DUP2 MSTORE POP SWAP1 POP PUSH2 0x854 JUMP JUMPDEST PUSH1 0x0 DUP3 SWAP1 POP PUSH1 0x0 JUMPDEST PUSH1 0x0 DUP3 EQ PUSH2 0x74A JUMPI DUP1 DUP1 PUSH2 0x733 SWAP1 PUSH2 0x11ED JUMP JUMPDEST SWAP2 POP POP PUSH1 0xA DUP3 PUSH2 0x743 SWAP2 SWAP1 PUSH2 0x1264 JUMP JUMPDEST SWAP2 POP PUSH2 0x720 JUMP JUMPDEST PUSH1 0x0 DUP2 PUSH8 0xFFFFFFFFFFFFFFFF DUP2 GT ISZERO PUSH2 0x766 JUMPI PUSH2 0x765 PUSH2 0xB8C JUMP JUMPDEST JUMPDEST PUSH1 0x40 MLOAD SWAP1 DUP1 DUP3 MSTORE DUP1 PUSH1 0x1F ADD PUSH1 0x1F NOT AND PUSH1 0x20 ADD DUP3 ADD PUSH1 0x40 MSTORE DUP1 ISZERO PUSH2 0x798 JUMPI DUP2 PUSH1 0x20 ADD PUSH1 0x1 DUP3 MUL DUP1 CALLDATASIZE DUP4 CALLDATACOPY DUP1 DUP3 ADD SWAP2 POP POP SWAP1 POP JUMPDEST POP SWAP1 POP PUSH1 0x0 DUP3 SWAP1 POP JUMPDEST PUSH1 0x0 DUP7 EQ PUSH2 0x84C JUMPI PUSH1 0x1 DUP2 PUSH2 0x7B6 SWAP2 SWAP1 PUSH2 0xDE0 JUMP JUMPDEST SWAP1 POP PUSH1 0x0 PUSH1 0xA DUP1 DUP9 PUSH2 0x7C8 SWAP2 SWAP1 PUSH2 0x1264 JUMP JUMPDEST PUSH2 0x7D2 SWAP2 SWAP1 PUSH2 0x1295 JUMP JUMPDEST DUP8 PUSH2 0x7DD SWAP2 SWAP1 PUSH2 0xDE0 JUMP JUMPDEST PUSH1 0x30 PUSH2 0x7E9 SWAP2 SWAP1 PUSH2 0x12E4 JUMP JUMPDEST SWAP1 POP PUSH1 0x0 DUP2 PUSH1 0xF8 SHL SWAP1 POP DUP1 DUP5 DUP5 DUP2 MLOAD DUP2 LT PUSH2 0x807 JUMPI PUSH2 0x806 PUSH2 0xD82 JUMP JUMPDEST JUMPDEST PUSH1 0x20 ADD ADD SWAP1 PUSH31 0xFFFFFFFFFFFFFFFFFFFFFFFFFFFFFFFFFFFFFFFFFFFFFFFFFFFFFFFFFFFFFF NOT AND SWAP1 DUP2 PUSH1 0x0 BYTE SWAP1 MSTORE8 POP PUSH1 0xA DUP9 PUSH2 0x843 SWAP2 SWAP1 PUSH2 0x1264 JUMP JUMPDEST SWAP8 POP POP POP PUSH2 0x7A1 JUMP JUMPDEST DUP2 SWAP5 POP POP POP POP POP JUMPDEST SWAP2 SWAP1 POP JUMP JUMPDEST PUSH1 0x40 MLOAD DUP1 PUSH1 0x40 ADD PUSH1 0x40 MSTORE DUP1 PUSH1 0x60 DUP2 MSTORE PUSH1 0x20 ADD PUSH1 0x0 DUP2 MSTORE POP SWAP1 JUMP JUMPDEST PUSH1 0x0 PUSH1 0x40 MLOAD SWAP1 POP SWAP1 JUMP JUMPDEST PUSH1 0x0 DUP1 REVERT JUMPDEST PUSH1 0x0 DUP1 REVERT JUMPDEST PUSH1 0x0 DUP2 SWAP1 POP SWAP2 SWAP1 POP JUMP JUMPDEST PUSH2 0x89A DUP2 PUSH2 0x887 JUMP JUMPDEST DUP2 EQ PUSH2 0x8A5 JUMPI PUSH1 0x0 DUP1 REVERT JUMPDEST POP JUMP JUMPDEST PUSH1 0x0 DUP2 CALLDATALOAD SWAP1 POP PUSH2 0x8B7 DUP2 PUSH2 0x891 JUMP JUMPDEST SWAP3 SWAP2 POP POP JUMP JUMPDEST PUSH1 0x0 PUSH1 0x20 DUP3 DUP5 SUB SLT ISZERO PUSH2 0x8D3 JUMPI PUSH2 0x8D2 PUSH2 0x87D JUMP JUMPDEST JUMPDEST PUSH1 0x0 PUSH2 0x8E1 DUP5 DUP3 DUP6 ADD PUSH2 0x8A8 JUMP JUMPDEST SWAP2 POP POP SWAP3 SWAP2 POP POP JUMP JUMPDEST PUSH1 0x0 PUSH20 0xFFFFFFFFFFFFFFFFFFFFFFFFFFFFFFFFFFFFFFFF DUP3 AND SWAP1 POP SWAP2 SWAP1 POP JUMP JUMPDEST PUSH1 0x0 PUSH2 0x915 DUP3 PUSH2 0x8EA JUMP JUMPDEST SWAP1 POP SWAP2 SWAP1 POP JUMP JUMPDEST PUSH2 0x925 DUP2 PUSH2 0x90A JUMP JUMPDEST DUP3 MSTORE POP POP JUMP JUMPDEST PUSH1 0x0 DUP2 MLOAD SWAP1 POP SWAP2 SWAP1 POP JUMP JUMPDEST PUSH1 0x0 DUP3 DUP3 MSTORE PUSH1 0x20 DUP3 ADD SWAP1 POP SWAP3 SWAP2 POP POP JUMP JUMPDEST PUSH1 0x0 JUMPDEST DUP4 DUP2 LT ISZERO PUSH2 0x965 JUMPI DUP1 DUP3 ADD MLOAD DUP2 DUP5 ADD MSTORE PUSH1 0x20 DUP2 ADD SWAP1 POP PUSH2 0x94A JUMP JUMPDEST PUSH1 0x0 DUP5 DUP5 ADD MSTORE POP POP POP POP JUMP JUMPDEST PUSH1 0x0 PUSH1 0x1F NOT PUSH1 0x1F DUP4 ADD AND SWAP1 POP SWAP2 SWAP1 POP JUMP JUMPDEST PUSH1 0x0 PUSH2 0x98D DUP3 PUSH2 0x92B JUMP JUMPDEST PUSH2 0x997 DUP2 DUP6 PUSH2 0x936 JUMP JUMPDEST SWAP4 POP PUSH2 0x9A7 DUP2 DUP6 PUSH1 0x20 DUP7 ADD PUSH2 0x947 JUMP JUMPDEST PUSH2 0x9B0 DUP2 PUSH2 0x971 JUMP JUMPDEST DUP5 ADD SWAP2 POP POP SWAP3 SWAP2 POP POP JUMP JUMPDEST PUSH2 0x9C4 DUP2 PUSH2 0x887 JUMP JUMPDEST DUP3 MSTORE POP POP JUMP JUMPDEST PUSH1 0x0 PUSH1 0x60 DUP3 ADD SWAP1 POP PUSH2 0x9DF PUSH1 0x0 DUP4 ADD DUP7 PUSH2 0x91C JUMP JUMPDEST DUP2 DUP2 SUB PUSH1 0x20 DUP4 ADD MSTORE PUSH2 0x9F1 DUP2 DUP6 PUSH2 0x982 JUMP JUMPDEST SWAP1 POP PUSH2 0xA00 PUSH1 0x40 DUP4 ADD DUP5 PUSH2 0x9BB JUMP JUMPDEST SWAP5 SWAP4 POP POP POP POP JUMP JUMPDEST PUSH1 0x0 DUP2 MLOAD SWAP1 POP SWAP2 SWAP1 POP JUMP JUMPDEST PUSH1 0x0 DUP3 DUP3 MSTORE PUSH1 0x20 DUP3 ADD SWAP1 POP SWAP3 SWAP2 POP POP JUMP JUMPDEST PUSH1 0x0 DUP2 SWAP1 POP PUSH1 0x20 DUP3 ADD SWAP1 POP SWAP2 SWAP1 POP JUMP JUMPDEST PUSH1 0x0 DUP3 DUP3 MSTORE PUSH1 0x20 DUP3 ADD SWAP1 POP SWAP3 SWAP2 POP POP JUMP JUMPDEST PUSH1 0x0 PUSH2 0xA50 DUP3 PUSH2 0x92B JUMP JUMPDEST PUSH2 0xA5A DUP2 DUP6 PUSH2 0xA34 JUMP JUMPDEST SWAP4 POP PUSH2 0xA6A DUP2 DUP6 PUSH1 0x20 DUP7 ADD PUSH2 0x947 JUMP JUMPDEST PUSH2 0xA73 DUP2 PUSH2 0x971 JUMP JUMPDEST DUP5 ADD SWAP2 POP POP SWAP3 SWAP2 POP POP JUMP JUMPDEST PUSH2 0xA87 DUP2 PUSH2 0x887 JUMP JUMPDEST DUP3 MSTORE POP POP JUMP JUMPDEST PUSH1 0x0 PUSH1 0x40 DUP4 ADD PUSH1 0x0 DUP4 ADD MLOAD DUP5 DUP3 SUB PUSH1 0x0 DUP7 ADD MSTORE PUSH2 0xAAA DUP3 DUP3 PUSH2 0xA45 JUMP JUMPDEST SWAP2 POP POP PUSH1 0x20 DUP4 ADD MLOAD PUSH2 0xABF PUSH1 0x20 DUP7 ADD DUP3 PUSH2 0xA7E JUMP JUMPDEST POP DUP1 SWAP2 POP POP SWAP3 SWAP2 POP POP JUMP JUMPDEST PUSH1 0x0 PUSH2 0xAD6 DUP4 DUP4 PUSH2 0xA8D JUMP JUMPDEST SWAP1 POP SWAP3 SWAP2 POP POP JUMP JUMPDEST PUSH1 0x0 PUSH1 0x20 DUP3 ADD SWAP1 POP SWAP2 SWAP1 POP JUMP JUMPDEST PUSH1 0x0 PUSH2 0xAF6 DUP3 PUSH2 0xA08 JUMP JUMPDEST PUSH2 0xB00 DUP2 DUP6 PUSH2 0xA13 JUMP JUMPDEST SWAP4 POP DUP4 PUSH1 0x20 DUP3 MUL DUP6 ADD PUSH2 0xB12 DUP6 PUSH2 0xA24 JUMP JUMPDEST DUP1 PUSH1 0x0 JUMPDEST DUP6 DUP2 LT ISZERO PUSH2 0xB4E JUMPI DUP5 DUP5 SUB DUP10 MSTORE DUP2 MLOAD PUSH2 0xB2F DUP6 DUP3 PUSH2 0xACA JUMP JUMPDEST SWAP5 POP PUSH2 0xB3A DUP4 PUSH2 0xADE JUMP JUMPDEST SWAP3 POP PUSH1 0x20 DUP11 ADD SWAP10 POP POP PUSH1 0x1 DUP2 ADD SWAP1 POP PUSH2 0xB16 JUMP JUMPDEST POP DUP3 SWAP8 POP DUP8 SWAP6 POP POP POP POP POP POP SWAP3 SWAP2 POP POP JUMP JUMPDEST PUSH1 0x0 PUSH1 0x20 DUP3 ADD SWAP1 POP DUP2 DUP2 SUB PUSH1 0x0 DUP4 ADD MSTORE PUSH2 0xB7A DUP2 DUP5 PUSH2 0xAEB JUMP JUMPDEST SWAP1 POP SWAP3 SWAP2 POP POP JUMP JUMPDEST PUSH1 0x0 DUP1 REVERT JUMPDEST PUSH1 0x0 DUP1 REVERT JUMPDEST PUSH32 0x4E487B7100000000000000000000000000000000000000000000000000000000 PUSH1 0x0 MSTORE PUSH1 0x41 PUSH1 0x4 MSTORE PUSH1 0x24 PUSH1 0x0 REVERT JUMPDEST PUSH2 0xBC4 DUP3 PUSH2 0x971 JUMP JUMPDEST DUP2 ADD DUP2 DUP2 LT PUSH8 0xFFFFFFFFFFFFFFFF DUP3 GT OR ISZERO PUSH2 0xBE3 JUMPI PUSH2 0xBE2 PUSH2 0xB8C JUMP JUMPDEST JUMPDEST DUP1 PUSH1 0x40 MSTORE POP POP POP JUMP JUMPDEST PUSH1 0x0 PUSH2 0xBF6 PUSH2 0x873 JUMP JUMPDEST SWAP1 POP PUSH2 0xC02 DUP3 DUP3 PUSH2 0xBBB JUMP JUMPDEST SWAP2 SWAP1 POP JUMP JUMPDEST PUSH1 0x0 PUSH8 0xFFFFFFFFFFFFFFFF DUP3 GT ISZERO PUSH2 0xC22 JUMPI PUSH2 0xC21 PUSH2 0xB8C JUMP JUMPDEST JUMPDEST PUSH2 0xC2B DUP3 PUSH2 0x971 JUMP JUMPDEST SWAP1 POP PUSH1 0x20 DUP2 ADD SWAP1 POP SWAP2 SWAP1 POP JUMP JUMPDEST DUP3 DUP2 DUP4 CALLDATACOPY PUSH1 0x0 DUP4 DUP4 ADD MSTORE POP POP POP JUMP JUMPDEST PUSH1 0x0 PUSH2 0xC5A PUSH2 0xC55 DUP5 PUSH2 0xC07 JUMP JUMPDEST PUSH2 0xBEC JUMP JUMPDEST SWAP1 POP DUP3 DUP2 MSTORE PUSH1 0x20 DUP2 ADD DUP5 DUP5 DUP5 ADD GT ISZERO PUSH2 0xC76 JUMPI PUSH2 0xC75 PUSH2 0xB87 JUMP JUMPDEST JUMPDEST PUSH2 0xC81 DUP5 DUP3 DUP6 PUSH2 0xC38 JUMP JUMPDEST POP SWAP4 SWAP3 POP POP POP JUMP JUMPDEST PUSH1 0x0 DUP3 PUSH1 0x1F DUP4 ADD SLT PUSH2 0xC9E JUMPI PUSH2 0xC9D PUSH2 0xB82 JUMP JUMPDEST JUMPDEST DUP2 CALLDATALOAD PUSH2 0xCAE DUP5 DUP3 PUSH1 0x20 DUP7 ADD PUSH2 0xC47 JUMP JUMPDEST SWAP2 POP POP SWAP3 SWAP2 POP POP JUMP JUMPDEST PUSH1 0x0 PUSH1 0x20 DUP3 DUP5 SUB SLT ISZERO PUSH2 0xCCD JUMPI PUSH2 0xCCC PUSH2 0x87D JUMP JUMPDEST JUMPDEST PUSH1 0x0 DUP3 ADD CALLDATALOAD PUSH8 0xFFFFFFFFFFFFFFFF DUP2 GT ISZERO PUSH2 0xCEB JUMPI PUSH2 0xCEA PUSH2 0x882 JUMP JUMPDEST JUMPDEST PUSH2 0xCF7 DUP5 DUP3 DUP6 ADD PUSH2 0xC89 JUMP JUMPDEST SWAP2 POP POP SWAP3 SWAP2 POP POP JUMP JUMPDEST PUSH1 0x0 PUSH1 0x20 DUP3 ADD SWAP1 POP DUP2 DUP2 SUB PUSH1 0x0 DUP4 ADD MSTORE PUSH2 0xD1A DUP2 DUP5 PUSH2 0x982 JUMP JUMPDEST SWAP1 POP SWAP3 SWAP2 POP POP JUMP JUMPDEST PUSH32 0x4E487B7100000000000000000000000000000000000000000000000000000000 PUSH1 0x0 MSTORE PUSH1 0x22 PUSH1 0x4 MSTORE PUSH1 0x24 PUSH1 0x0 REVERT JUMPDEST PUSH1 0x0 PUSH1 0x2 DUP3 DIV SWAP1 POP PUSH1 0x1 DUP3 AND DUP1 PUSH2 0xD69 JUMPI PUSH1 0x7F DUP3 AND SWAP2 POP JUMPDEST PUSH1 0x20 DUP3 LT DUP2 SUB PUSH2 0xD7C JUMPI PUSH2 0xD7B PUSH2 0xD22 JUMP JUMPDEST JUMPDEST POP SWAP2 SWAP1 POP JUMP JUMPDEST PUSH32 0x4E487B7100000000000000000000000000000000000000000000000000000000 PUSH1 0x0 MSTORE PUSH1 0x32 PUSH1 0x4 MSTORE PUSH1 0x24 PUSH1 0x0 REVERT JUMPDEST PUSH32 0x4E487B7100000000000000000000000000000000000000000000000000000000 PUSH1 0x0 MSTORE PUSH1 0x11 PUSH1 0x4 MSTORE PUSH1 0x24 PUSH1 0x0 REVERT JUMPDEST PUSH1 0x0 PUSH2 0xDEB DUP3 PUSH2 0x887 JUMP JUMPDEST SWAP2 POP PUSH2 0xDF6 DUP4 PUSH2 0x887 JUMP JUMPDEST SWAP3 POP DUP3 DUP3 SUB SWAP1 POP DUP2 DUP2 GT ISZERO PUSH2 0xE0E JUMPI PUSH2 0xE0D PUSH2 0xDB1 JUMP JUMPDEST JUMPDEST SWAP3 SWAP2 POP POP JUMP JUMPDEST PUSH1 0x0 DUP2 SWAP1 POP SWAP3 SWAP2 POP POP JUMP JUMPDEST PUSH32 0x4D657373616765206973207374696C6C206C6F636B65642E2054696D65207265 PUSH1 0x0 DUP3 ADD MSTORE PUSH32 0x6D61696E696E673A200000000000000000000000000000000000000000000000 PUSH1 0x20 DUP3 ADD MSTORE POP JUMP JUMPDEST PUSH1 0x0 PUSH2 0xE7B PUSH1 0x29 DUP4 PUSH2 0xE14 JUMP JUMPDEST SWAP2 POP PUSH2 0xE86 DUP3 PUSH2 0xE1F JUMP JUMPDEST PUSH1 0x29 DUP3 ADD SWAP1 POP SWAP2 SWAP1 POP JUMP JUMPDEST PUSH1 0x0 PUSH2 0xE9C DUP3 PUSH2 0x92B JUMP JUMPDEST PUSH2 0xEA6 DUP2 DUP6 PUSH2 0xE14 JUMP JUMPDEST SWAP4 POP PUSH2 0xEB6 DUP2 DUP6 PUSH1 0x20 DUP7 ADD PUSH2 0x947 JUMP JUMPDEST DUP1 DUP5 ADD SWAP2 POP POP SWAP3 SWAP2 POP POP JUMP JUMPDEST PUSH32 0x207365636F6E6473000000000000000000000000000000000000000000000000 PUSH1 0x0 DUP3 ADD MSTORE POP JUMP JUMPDEST PUSH1 0x0 PUSH2 0xEF8 PUSH1 0x8 DUP4 PUSH2 0xE14 JUMP JUMPDEST SWAP2 POP PUSH2 0xF03 DUP3 PUSH2 0xEC2 JUMP JUMPDEST PUSH1 0x8 DUP3 ADD SWAP1 POP SWAP2 SWAP1 POP JUMP JUMPDEST PUSH1 0x0 PUSH2 0xF19 DUP3 PUSH2 0xE6E JUMP JUMPDEST SWAP2 POP PUSH2 0xF25 DUP3 DUP5 PUSH2 0xE91 JUMP JUMPDEST SWAP2 POP PUSH2 0xF30 DUP3 PUSH2 0xEEB JUMP JUMPDEST SWAP2 POP DUP2 SWAP1 POP SWAP3 SWAP2 POP POP JUMP JUMPDEST PUSH1 0x0 DUP2 SWAP1 POP DUP2 PUSH1 0x0 MSTORE PUSH1 0x20 PUSH1 0x0 KECCAK256 SWAP1 POP SWAP2 SWAP1 POP JUMP JUMPDEST PUSH1 0x0 PUSH1 0x20 PUSH1 0x1F DUP4 ADD DIV SWAP1 POP SWAP2 SWAP1 POP JUMP JUMPDEST PUSH1 0x0 DUP3 DUP3 SHL SWAP1 POP SWAP3 SWAP2 POP POP JUMP JUMPDEST PUSH1 0x0 PUSH1 0x8 DUP4 MUL PUSH2 0xF9D PUSH32 0xFFFFFFFFFFFFFFFFFFFFFFFFFFFFFFFFFFFFFFFFFFFFFFFFFFFFFFFFFFFFFFFF DUP3 PUSH2 0xF60 JUMP JUMPDEST PUSH2 0xFA7 DUP7 DUP4 PUSH2 0xF60 JUMP JUMPDEST SWAP6 POP DUP1 NOT DUP5 AND SWAP4 POP DUP1 DUP7 AND DUP5 OR SWAP3 POP POP POP SWAP4 SWAP3 POP POP POP JUMP JUMPDEST PUSH1 0x0 DUP2 SWAP1 POP SWAP2 SWAP1 POP JUMP JUMPDEST PUSH1 0x0 PUSH2 0xFE4 PUSH2 0xFDF PUSH2 0xFDA DUP5 PUSH2 0x887 JUMP JUMPDEST PUSH2 0xFBF JUMP JUMPDEST PUSH2 0x887 JUMP JUMPDEST SWAP1 POP SWAP2 SWAP1 POP JUMP JUMPDEST PUSH1 0x0 DUP2 SWAP1 POP SWAP2 SWAP1 POP JUMP JUMPDEST PUSH2 0xFFE DUP4 PUSH2 0xFC9 JUMP JUMPDEST PUSH2 0x1012 PUSH2 0x100A DUP3 PUSH2 0xFEB JUMP JUMPDEST DUP5 DUP5 SLOAD PUSH2 0xF6D JUMP JUMPDEST DUP3 SSTORE POP POP POP POP JUMP JUMPDEST PUSH1 0x0 SWAP1 JUMP JUMPDEST PUSH2 0x1027 PUSH2 0x101A JUMP JUMPDEST PUSH2 0x1032 DUP2 DUP5 DUP5 PUSH2 0xFF5 JUMP JUMPDEST POP POP POP JUMP JUMPDEST JUMPDEST DUP2 DUP2 LT ISZERO PUSH2 0x1056 JUMPI PUSH2 0x104B PUSH1 0x0 DUP3 PUSH2 0x101F JUMP JUMPDEST PUSH1 0x1 DUP2 ADD SWAP1 POP PUSH2 0x1038 JUMP JUMPDEST POP POP JUMP JUMPDEST PUSH1 0x1F DUP3 GT ISZERO PUSH2 0x109B JUMPI PUSH2 0x106C DUP2 PUSH2 0xF3B JUMP JUMPDEST PUSH2 0x1075 DUP5 PUSH2 0xF50 JUMP JUMPDEST DUP2 ADD PUSH1 0x20 DUP6 LT ISZERO PUSH2 0x1084 JUMPI DUP2 SWAP1 POP JUMPDEST PUSH2 0x1098 PUSH2 0x1090 DUP6 PUSH2 0xF50 JUMP JUMPDEST DUP4 ADD DUP3 PUSH2 0x1037 JUMP JUMPDEST POP POP JUMPDEST POP POP POP JUMP JUMPDEST PUSH1 0x0 DUP3 DUP3 SHR SWAP1 POP SWAP3 SWAP2 POP POP JUMP JUMPDEST PUSH1 0x0 PUSH2 0x10BE PUSH1 0x0 NOT DUP5 PUSH1 0x8 MUL PUSH2 0x10A0 JUMP JUMPDEST NOT DUP1 DUP4 AND SWAP2 POP POP SWAP3 SWAP2 POP POP JUMP JUMPDEST PUSH1 0x0 PUSH2 0x10D7 DUP4 DUP4 PUSH2 0x10AD JUMP JUMPDEST SWAP2 POP DUP3 PUSH1 0x2 MUL DUP3 OR SWAP1 POP SWAP3 SWAP2 POP POP JUMP JUMPDEST PUSH2 0x10F0 DUP3 PUSH2 0x92B JUMP JUMPDEST PUSH8 0xFFFFFFFFFFFFFFFF DUP2 GT ISZERO PUSH2 0x1109 JUMPI PUSH2 0x1108 PUSH2 0xB8C JUMP JUMPDEST JUMPDEST PUSH2 0x1113 DUP3 SLOAD PUSH2 0xD51 JUMP JUMPDEST PUSH2 0x111E DUP3 DUP3 DUP6 PUSH2 0x105A JUMP JUMPDEST PUSH1 0x0 PUSH1 0x20 SWAP1 POP PUSH1 0x1F DUP4 GT PUSH1 0x1 DUP2 EQ PUSH2 0x1151 JUMPI PUSH1 0x0 DUP5 ISZERO PUSH2 0x113F JUMPI DUP3 DUP8 ADD MLOAD SWAP1 POP JUMPDEST PUSH2 0x1149 DUP6 DUP3 PUSH2 0x10CB JUMP JUMPDEST DUP7 SSTORE POP PUSH2 0x11B1 JUMP JUMPDEST PUSH1 0x1F NOT DUP5 AND PUSH2 0x115F DUP7 PUSH2 0xF3B JUMP JUMPDEST PUSH1 0x0 JUMPDEST DUP3 DUP2 LT ISZERO PUSH2 0x1187 JUMPI DUP5 DUP10 ADD MLOAD DUP3 SSTORE PUSH1 0x1 DUP3 ADD SWAP2 POP PUSH1 0x20 DUP6 ADD SWAP5 POP PUSH1 0x20 DUP2 ADD SWAP1 POP PUSH2 0x1162 JUMP JUMPDEST DUP7 DUP4 LT ISZERO PUSH2 0x11A4 JUMPI DUP5 DUP10 ADD MLOAD PUSH2 0x11A0 PUSH1 0x1F DUP10 AND DUP3 PUSH2 0x10AD JUMP JUMPDEST DUP4 SSTORE POP JUMPDEST PUSH1 0x1 PUSH1 0x2 DUP9 MUL ADD DUP9 SSTORE POP POP POP JUMPDEST POP POP POP POP POP POP JUMP JUMPDEST PUSH1 0x0 PUSH2 0x11C4 DUP3 PUSH2 0x887 JUMP JUMPDEST SWAP2 POP PUSH2 0x11CF DUP4 PUSH2 0x887 JUMP JUMPDEST SWAP3 POP DUP3 DUP3 ADD SWAP1 POP DUP1 DUP3 GT ISZERO PUSH2 0x11E7 JUMPI PUSH2 0x11E6 PUSH2 0xDB1 JUMP JUMPDEST JUMPDEST SWAP3 SWAP2 POP POP JUMP JUMPDEST PUSH1 0x0 PUSH2 0x11F8 DUP3 PUSH2 0x887 JUMP JUMPDEST SWAP2 POP PUSH32 0xFFFFFFFFFFFFFFFFFFFFFFFFFFFFFFFFFFFFFFFFFFFFFFFFFFFFFFFFFFFFFFFF DUP3 SUB PUSH2 0x122A JUMPI PUSH2 0x1229 PUSH2 0xDB1 JUMP JUMPDEST JUMPDEST PUSH1 0x1 DUP3 ADD SWAP1 POP SWAP2 SWAP1 POP JUMP JUMPDEST PUSH32 0x4E487B7100000000000000000000000000000000000000000000000000000000 PUSH1 0x0 MSTORE PUSH1 0x12 PUSH1 0x4 MSTORE PUSH1 0x24 PUSH1 0x0 REVERT JUMPDEST PUSH1 0x0 PUSH2 0x126F DUP3 PUSH2 0x887 JUMP JUMPDEST SWAP2 POP PUSH2 0x127A DUP4 PUSH2 0x887 JUMP JUMPDEST SWAP3 POP DUP3 PUSH2 0x128A JUMPI PUSH2 0x1289 PUSH2 0x1235 JUMP JUMPDEST JUMPDEST DUP3 DUP3 DIV SWAP1 POP SWAP3 SWAP2 POP POP JUMP JUMPDEST PUSH1 0x0 PUSH2 0x12A0 DUP3 PUSH2 0x887 JUMP JUMPDEST SWAP2 POP PUSH2 0x12AB DUP4 PUSH2 0x887 JUMP JUMPDEST SWAP3 POP DUP3 DUP3 MUL PUSH2 0x12B9 DUP2 PUSH2 0x887 JUMP JUMPDEST SWAP2 POP DUP3 DUP3 DIV DUP5 EQ DUP4 ISZERO OR PUSH2 0x12D0 JUMPI PUSH2 0x12CF PUSH2 0xDB1 JUMP JUMPDEST JUMPDEST POP SWAP3 SWAP2 POP POP JUMP JUMPDEST PUSH1 0x0 PUSH1 0xFF DUP3 AND SWAP1 POP SWAP2 SWAP1 POP JUMP JUMPDEST PUSH1 0x0 PUSH2 0x12EF DUP3 PUSH2 0x12D7 JUMP JUMPDEST SWAP2 POP PUSH2 0x12FA DUP4 PUSH2 0x12D7 JUMP JUMPDEST SWAP3 POP DUP3 DUP3 ADD SWAP1 POP PUSH1 0xFF DUP2 GT ISZERO PUSH2 0x1313 JUMPI PUSH2 0x1312 PUSH2 0xDB1 JUMP JUMPDEST JUMPDEST SWAP3 SWAP2 POP POP JUMP INVALID LOG2 PUSH5 0x6970667358 0x22 SLT KECCAK256 SWAP11 DUP11 PUSH24 0x96AE9FD77F61F06A06CDEC838F291EB526ACF0B5C2A3D99A MOD SWAP7 JUMPDEST EXTCODESIZE SSTORE PUSH5 0x736F6C6343 STOP ADDMOD SHL STOP CALLER "
        },
        "methodIdentifiers": {
          "messages(uint256)": "0d80fefd",
          "revealMessage()": "1c3b7bc4",
          "setMessage(string)": "368b8772",
          "testConvertToString(uint256)": "f195ff23"
        }
      }
    }
  }
}