{
  "_format": "hh-sol-artifact-1",
  "contractName": "Timelock",
  "sourceName": "contracts/Timelock.sol",
  "abi": [
    {
      "inputs": [
        {
          "internalType": "uint256",
          "name": "",
          "type": "uint256"
        }
      ],
      "name": "messages",
      "outputs": [
        {
          "internalType": "address",
          "name": "user",
          "type": "address"
        },
        {
          "internalType": "string",
          "name": "text",
          "type": "string"
        },
        {
          "internalType": "uint256",
          "name": "unlockTime",
          "type": "uint256"
        }
      ],
      "stateMutability": "view",
      "type": "function"
    },
    {
      "inputs": [],
      "name": "revealMessage",
      "outputs": [
        {
          "internalType": "string[]",
          "name": "",
          "type": "string[]"
        }
      ],
      "stateMutability": "view",
      "type": "function"
    },
    {
      "inputs": [
        {
          "internalType": "string",
          "name": "_message",
          "type": "string"
        }
      ],
      "name": "setMessage",
      "outputs": [],
      "stateMutability": "nonpayable",
      "type": "function"
    }
  ],
  "bytecode": "0x6080604052348015600f57600080fd5b506111e58061001f6000396000f3fe608060405234801561001057600080fd5b50600436106100415760003560e01c80630d80fefd146100465780631c3b7bc414610078578063368b877214610096575b600080fd5b610060600480360381019061005b91906107c1565b6100b2565b60405161006f939291906108ce565b60405180910390f35b610080610194565b60405161008d9190610a18565b60405180910390f35b6100b060048036038101906100ab9190610b6f565b61036f565b005b600081815481106100c257600080fd5b90600052602060002090600302016000915090508060000160009054906101000a900473ffffffffffffffffffffffffffffffffffffffff169080600101805461010b90610be7565b80601f016020809104026020016040519081016040528092919081815260200182805461013790610be7565b80156101845780601f1061015957610100808354040283529160200191610184565b820191906000526020600020905b81548152906001019060200180831161016757829003601f168201915b5050505050908060020154905083565b60606000808054905067ffffffffffffffff8111156101b6576101b5610a44565b5b6040519080825280602002602001820160405280156101e957816020015b60608152602001906001900390816101d45790505b50905060005b60008054905081101561036757600081815481106102105761020f610c18565b5b90600052602060002090600302016002015442101561028d57600042600083815481106102405761023f610c18565b5b90600052602060002090600302016002015461025c9190610c76565b9050610267816105ef565b6040516020016102779190610da4565b604051602081830303815290604052505061035a565b600081815481106102a1576102a0610c18565b5b906000526020600020906003020160010180546102bd90610be7565b80601f01602080910402602001604051908101604052809291908181526020018280546102e990610be7565b80156103365780601f1061030b57610100808354040283529160200191610336565b820191906000526020600020905b81548152906001019060200180831161031957829003601f168201915b505050505082828151811061034e5761034d610c18565b5b60200260200101819052505b80806001019150506101ef565b508091505090565b6000805b600080549050811015610513573373ffffffffffffffffffffffffffffffffffffffff16600082815481106103ab576103aa610c18565b5b906000526020600020906003020160000160009054906101000a900473ffffffffffffffffffffffffffffffffffffffff1673ffffffffffffffffffffffffffffffffffffffff1603610506576000818154811061040c5761040b610c18565b5b90600052602060002090600302016002015442101561049357826000828154811061043a57610439610c18565b5b906000526020600020906003020160010190816104579190610f7d565b50600f42610465919061104f565b6000828154811061047957610478610c18565b5b9060005260206000209060030201600201819055506104fd565b82600082815481106104a8576104a7610c18565b5b906000526020600020906003020160010190816104c59190610f7d565b50600f426104d3919061104f565b600082815481106104e7576104e6610c18565b5b9060005260206000209060030201600201819055505b60019150610513565b8080600101915050610373565b50806105eb57600060405180606001604052803373ffffffffffffffffffffffffffffffffffffffff168152602001848152602001600f42610555919061104f565b815250908060018154018082558091505060019003906000526020600020906003020160009091909190915060008201518160000160006101000a81548173ffffffffffffffffffffffffffffffffffffffff021916908373ffffffffffffffffffffffffffffffffffffffff16021790555060208201518160010190816105dd9190610f7d565b506040820151816002015550505b5050565b606060008203610636576040518060400160405280600181526020017f30000000000000000000000000000000000000000000000000000000000000008152509050610772565b600082905060005b6000821461066857808061065190611083565b915050600a8261066191906110fa565b915061063e565b60008167ffffffffffffffff81111561068457610683610a44565b5b6040519080825280601f01601f1916602001820160405280156106b65781602001600182028036833780820191505090505b50905060008290505b6000861461076a576001816106d49190610c76565b90506000600a80886106e691906110fa565b6106f0919061112b565b876106fb9190610c76565b6030610707919061117a565b905060008160f81b90508084848151811061072557610724610c18565b5b60200101907effffffffffffffffffffffffffffffffffffffffffffffffffffffffffffff1916908160001a905350600a8861076191906110fa565b975050506106bf565b819450505050505b919050565b6000604051905090565b600080fd5b600080fd5b6000819050919050565b61079e8161078b565b81146107a957600080fd5b50565b6000813590506107bb81610795565b92915050565b6000602082840312156107d7576107d6610781565b5b60006107e5848285016107ac565b91505092915050565b600073ffffffffffffffffffffffffffffffffffffffff82169050919050565b6000610819826107ee565b9050919050565b6108298161080e565b82525050565b600081519050919050565b600082825260208201905092915050565b60005b8381101561086957808201518184015260208101905061084e565b60008484015250505050565b6000601f19601f8301169050919050565b60006108918261082f565b61089b818561083a565b93506108ab81856020860161084b565b6108b481610875565b840191505092915050565b6108c88161078b565b82525050565b60006060820190506108e36000830186610820565b81810360208301526108f58185610886565b905061090460408301846108bf565b949350505050565b600081519050919050565b600082825260208201905092915050565b6000819050602082019050919050565b600082825260208201905092915050565b60006109548261082f565b61095e8185610938565b935061096e81856020860161084b565b61097781610875565b840191505092915050565b600061098e8383610949565b905092915050565b6000602082019050919050565b60006109ae8261090c565b6109b88185610917565b9350836020820285016109ca85610928565b8060005b85811015610a0657848403895281516109e78582610982565b94506109f283610996565b925060208a019950506001810190506109ce565b50829750879550505050505092915050565b60006020820190508181036000830152610a3281846109a3565b905092915050565b600080fd5b600080fd5b7f4e487b7100000000000000000000000000000000000000000000000000000000600052604160045260246000fd5b610a7c82610875565b810181811067ffffffffffffffff82111715610a9b57610a9a610a44565b5b80604052505050565b6000610aae610777565b9050610aba8282610a73565b919050565b600067ffffffffffffffff821115610ada57610ad9610a44565b5b610ae382610875565b9050602081019050919050565b82818337600083830152505050565b6000610b12610b0d84610abf565b610aa4565b905082815260208101848484011115610b2e57610b2d610a3f565b5b610b39848285610af0565b509392505050565b600082601f830112610b5657610b55610a3a565b5b8135610b66848260208601610aff565b91505092915050565b600060208284031215610b8557610b84610781565b5b600082013567ffffffffffffffff811115610ba357610ba2610786565b5b610baf84828501610b41565b91505092915050565b7f4e487b7100000000000000000000000000000000000000000000000000000000600052602260045260246000fd5b60006002820490506001821680610bff57607f821691505b602082108103610c1257610c11610bb8565b5b50919050565b7f4e487b7100000000000000000000000000000000000000000000000000000000600052603260045260246000fd5b7f4e487b7100000000000000000000000000000000000000000000000000000000600052601160045260246000fd5b6000610c818261078b565b9150610c8c8361078b565b9250828203905081811115610ca457610ca3610c47565b5b92915050565b600081905092915050565b7f4d657373616765206973207374696c6c206c6f636b65642e2054696d6520726560008201527f6d61696e696e673a200000000000000000000000000000000000000000000000602082015250565b6000610d11602983610caa565b9150610d1c82610cb5565b602982019050919050565b6000610d328261082f565b610d3c8185610caa565b9350610d4c81856020860161084b565b80840191505092915050565b7f207365636f6e6473000000000000000000000000000000000000000000000000600082015250565b6000610d8e600883610caa565b9150610d9982610d58565b600882019050919050565b6000610daf82610d04565b9150610dbb8284610d27565b9150610dc682610d81565b915081905092915050565b60008190508160005260206000209050919050565b60006020601f8301049050919050565b600082821b905092915050565b600060088302610e337fffffffffffffffffffffffffffffffffffffffffffffffffffffffffffffffff82610df6565b610e3d8683610df6565b95508019841693508086168417925050509392505050565b6000819050919050565b6000610e7a610e75610e708461078b565b610e55565b61078b565b9050919050565b6000819050919050565b610e9483610e5f565b610ea8610ea082610e81565b848454610e03565b825550505050565b600090565b610ebd610eb0565b610ec8818484610e8b565b505050565b5b81811015610eec57610ee1600082610eb5565b600181019050610ece565b5050565b601f821115610f3157610f0281610dd1565b610f0b84610de6565b81016020851015610f1a578190505b610f2e610f2685610de6565b830182610ecd565b50505b505050565b600082821c905092915050565b6000610f5460001984600802610f36565b1980831691505092915050565b6000610f6d8383610f43565b9150826002028217905092915050565b610f868261082f565b67ffffffffffffffff811115610f9f57610f9e610a44565b5b610fa98254610be7565b610fb4828285610ef0565b600060209050601f831160018114610fe75760008415610fd5578287015190505b610fdf8582610f61565b865550611047565b601f198416610ff586610dd1565b60005b8281101561101d57848901518255600182019150602085019450602081019050610ff8565b8683101561103a5784890151611036601f891682610f43565b8355505b6001600288020188555050505b505050505050565b600061105a8261078b565b91506110658361078b565b925082820190508082111561107d5761107c610c47565b5b92915050565b600061108e8261078b565b91507fffffffffffffffffffffffffffffffffffffffffffffffffffffffffffffffff82036110c0576110bf610c47565b5b600182019050919050565b7f4e487b7100000000000000000000000000000000000000000000000000000000600052601260045260246000fd5b60006111058261078b565b91506111108361078b565b9250826111205761111f6110cb565b5b828204905092915050565b60006111368261078b565b91506111418361078b565b925082820261114f8161078b565b9150828204841483151761116657611165610c47565b5b5092915050565b600060ff82169050919050565b60006111858261116d565b91506111908361116d565b9250828201905060ff8111156111a9576111a8610c47565b5b9291505056fea2646970667358221220959c56a018f2fbf75f30b8d5435c9b054e72c8920b7c375d0d26cc0211cd3ef664736f6c634300081b0033",
  "linkReferences": {},
  "deployedLinkReferences": {}
}